{
	"data": {
		"bytecode": {
			"linkReferences": {},
			"object": "608060405273d250874b5e299be984eb3baf19353a90f285e84d5f806101000a81548173ffffffffffffffffffffffffffffffffffffffff021916908373ffffffffffffffffffffffffffffffffffffffff160217905550348015610062575f80fd5b505f8054906101000a900473ffffffffffffffffffffffffffffffffffffffff1660015f6101000a81548173ffffffffffffffffffffffffffffffffffffffff021916908373ffffffffffffffffffffffffffffffffffffffff160217905550612a03806100cf5f395ff3fe6080604052600436106100df575f3560e01c8063823cf33a1161007e578063c290d69111610058578063c290d691146102e5578063d353a1cb14610301578063d92c183a14610329578063db613e8114610365576100e6565b8063823cf33a14610254578063922635d81461027e57806396493566146102bb576100e6565b80634515f7ad116100ba5780634515f7ad1461018a57806356998531146101c65780635cff09f5146101f057806364f3ad5214610218576100e6565b8062fe6a77146100e8578063205abd25146101245780632da5e57214610160576100e6565b366100e657005b005b3480156100f3575f80fd5b5061010e60048036038101906101099190611818565b61038f565b60405161011b9190611870565b60405180910390f35b34801561012f575f80fd5b5061014a60048036038101906101459190611889565b610439565b60405161015791906118d6565b60405180910390f35b34801561016b575f80fd5b506101746104dd565b604051610181919061194a565b60405180910390f35b348015610195575f80fd5b506101b060048036038101906101ab9190611818565b610502565b6040516101bd9190611870565b60405180910390f35b3480156101d1575f80fd5b506101da6105ac565b6040516101e791906118d6565b60405180910390f35b3480156101fb575f80fd5b5061021660048036038101906102119190611b6f565b6105b2565b005b348015610223575f80fd5b5061023e60048036038101906102399190611c02565b6108f8565b60405161024b9190611870565b60405180910390f35b34801561025f575f80fd5b506102686109a5565b6040516102759190611f20565b60405180910390f35b348015610289575f80fd5b506102a4600480360381019061029f9190611f40565b610c00565b6040516102b2929190612073565b60405180910390f35b3480156102c6575f80fd5b506102cf610e78565b6040516102dc91906120b0565b60405180910390f35b6102ff60048036038101906102fa9190611f40565b610e9b565b005b34801561030c575f80fd5b5061032760048036038101906103229190611f40565b6111a1565b005b348015610334575f80fd5b5061034f600480360381019061034a91906120c9565b611625565b60405161035c91906118d6565b60405180910390f35b348015610370575f80fd5b506103796116c6565b60405161038691906120b0565b60405180910390f35b5f8060015f9054906101000a900473ffffffffffffffffffffffffffffffffffffffff1673ffffffffffffffffffffffffffffffffffffffff1663095ea7b385856040518363ffffffff1660e01b81526004016103ed9291906120f4565b6020604051808303815f875af1158015610409573d5f803e3d5ffd5b505050506040513d601f19601f8201168201806040525081019061042d9190612145565b90508091505092915050565b5f60015f9054906101000a900473ffffffffffffffffffffffffffffffffffffffff1673ffffffffffffffffffffffffffffffffffffffff1663c5d31bec84846040518363ffffffff1660e01b8152600401610496929190612170565b602060405180830381865afa1580156104b1573d5f803e3d5ffd5b505050506040513d601f19601f820116820180604052508101906104d591906121ab565b905092915050565b60015f9054906101000a900473ffffffffffffffffffffffffffffffffffffffff1681565b5f8060015f9054906101000a900473ffffffffffffffffffffffffffffffffffffffff1673ffffffffffffffffffffffffffffffffffffffff1663a9059cbb85856040518363ffffffff1660e01b81526004016105609291906120f4565b6020604051808303815f875af115801561057c573d5f803e3d5ffd5b505050506040513d601f19601f820116820180604052508101906105a09190612145565b90508091505092915050565b60035481565b838383835f84116105f8576040517f08c379a00000000000000000000000000000000000000000000000000000000081526004016105ef90612230565b60405180910390fd5b600f42610605919061227b565b8311610646576040517f08c379a000000000000000000000000000000000000000000000000000000000815260040161063d906122f8565b60405180910390fd5b5f8211610688576040517f08c379a000000000000000000000000000000000000000000000000000000000815260040161067f90612360565b60405180910390fd5b60328110156106cc576040517f08c379a00000000000000000000000000000000000000000000000000000000081526004016106c3906123c8565b60405180910390fd5b6106d46116cd565b60035f81546106e2906123e6565b919050819055815f01818152505033816020019073ffffffffffffffffffffffffffffffffffffffff16908173ffffffffffffffffffffffffffffffffffffffff1681525050895f6002811061073b5761073a61242d565b5b602002015181604001819052508960016002811061075c5761075b61242d565b5b6020020151816060018190525088816080018181525050878160c0018181525050868160e001818152505085816101000181815250505f81610120019060028111156107ab576107aa611d13565b5b908160028111156107bf576107be611d13565b5b815250504281610160018181525050600481908060018154018082558091505060019003905f5260205f2090600c02015f909190919091505f820151815f01556020820151816001015f6101000a81548173ffffffffffffffffffffffffffffffffffffffff021916908373ffffffffffffffffffffffffffffffffffffffff160217905550604082015181600201908161085a919061264b565b506060820151816003019081610870919061264b565b506080820151816004015560a0820151816005015560c0820151816006015560e082015181600701556101008201518160080155610120820151816009015f6101000a81548160ff021916908360028111156108cf576108ce611d13565b5b021790555061014082015181600a015561016082015181600b0155505050505050505050505050565b5f8060015f9054906101000a900473ffffffffffffffffffffffffffffffffffffffff1673ffffffffffffffffffffffffffffffffffffffff166323b872dd8686866040518463ffffffff1660e01b81526004016109589392919061271a565b6020604051808303815f875af1158015610974573d5f803e3d5ffd5b505050506040513d601f19601f820116820180604052508101906109989190612145565b9050809150509392505050565b60606004805480602002602001604051908101604052809291908181526020015f905b82821015610bf7578382905f5260205f2090600c0201604051806101800160405290815f8201548152602001600182015f9054906101000a900473ffffffffffffffffffffffffffffffffffffffff1673ffffffffffffffffffffffffffffffffffffffff1673ffffffffffffffffffffffffffffffffffffffff168152602001600282018054610a5890612487565b80601f0160208091040260200160405190810160405280929190818152602001828054610a8490612487565b8015610acf5780601f10610aa657610100808354040283529160200191610acf565b820191905f5260205f20905b815481529060010190602001808311610ab257829003601f168201915b50505050508152602001600382018054610ae890612487565b80601f0160208091040260200160405190810160405280929190818152602001828054610b1490612487565b8015610b5f5780601f10610b3657610100808354040283529160200191610b5f565b820191905f5260205f20905b815481529060010190602001808311610b4257829003601f168201915b505050505081526020016004820154815260200160058201548152602001600682015481526020016007820154815260200160088201548152602001600982015f9054906101000a900460ff166002811115610bbe57610bbd611d13565b5b6002811115610bd057610bcf611d13565b5b8152602001600a8201548152602001600b82015481525050815260200190600101906109c8565b50505050905090565b5f610c096116cd565b610c116116cd565b600354841180610c2157505f8411155b15610c32575f819250925050610e73565b60016004600186610c43919061274f565b81548110610c5457610c5361242d565b5b905f5260205f2090600c020180604051806101800160405290815f8201548152602001600182015f9054906101000a900473ffffffffffffffffffffffffffffffffffffffff1673ffffffffffffffffffffffffffffffffffffffff1673ffffffffffffffffffffffffffffffffffffffff168152602001600282018054610cdb90612487565b80601f0160208091040260200160405190810160405280929190818152602001828054610d0790612487565b8015610d525780601f10610d2957610100808354040283529160200191610d52565b820191905f5260205f20905b815481529060010190602001808311610d3557829003601f168201915b50505050508152602001600382018054610d6b90612487565b80601f0160208091040260200160405190810160405280929190818152602001828054610d9790612487565b8015610de25780601f10610db957610100808354040283529160200191610de2565b820191905f5260205f20905b815481529060010190602001808311610dc557829003601f168201915b505050505081526020016004820154815260200160058201548152602001600682015481526020016007820154815260200160088201548152602001600982015f9054906101000a900460ff166002811115610e4157610e40611d13565b5b6002811115610e5357610e52611d13565b5b8152602001600a8201548152602001600b82015481525050905092509250505b915091565b5f8054906101000a900473ffffffffffffffffffffffffffffffffffffffff1681565b5f600182610ea9919061274f565b9050600354821115610ef0576040517f08c379a0000000000000000000000000000000000000000000000000000000008152600401610ee7906127cc565b60405180910390fd5b5f6002811115610f0357610f02611d13565b5b60048281548110610f1757610f1661242d565b5b905f5260205f2090600c02016009015f9054906101000a900460ff166002811115610f4557610f44611d13565b5b14610f85576040517f08c379a0000000000000000000000000000000000000000000000000000000008152600401610f7c90612834565b60405180910390fd5b60048181548110610f9957610f9861242d565b5b905f5260205f2090600c020160070154341015610feb576040517f08c379a0000000000000000000000000000000000000000000000000000000008152600401610fe29061289c565b60405180910390fd5b426004828154811061100057610fff61242d565b5b905f5260205f2090600c02016006015411611050576040517f08c379a000000000000000000000000000000000000000000000000000000000815260040161104790612904565b60405180910390fd5b5f34905080600483815481106110695761106861242d565b5b905f5260205f2090600c02016005015f828254611086919061227b565b9250508190555061109561174c565b33815f019073ffffffffffffffffffffffffffffffffffffffff16908173ffffffffffffffffffffffffffffffffffffffff16815250508181602001818152505060025f8481526020019081526020015f2081908060018154018082558091505060019003905f5260205f2090600202015f909190919091505f820151815f015f6101000a81548173ffffffffffffffffffffffffffffffffffffffff021916908373ffffffffffffffffffffffffffffffffffffffff1602179055506020820151816001015550507f76f286ee1c29bc120f5f567b8a9ddba0f5cb807ffde3a1a58da0ebdac99374f9843334426040516111939493929190612922565b60405180910390a150505050565b5f6001826111af919061274f565b90506003548211156111f6576040517f08c379a00000000000000000000000000000000000000000000000000000000081526004016111ed906127cc565b60405180910390fd5b5f600281111561120957611208611d13565b5b6004828154811061121d5761121c61242d565b5b905f5260205f2090600c02016009015f9054906101000a900460ff16600281111561124b5761124a611d13565b5b1461128b576040517f08c379a000000000000000000000000000000000000000000000000000000000815260040161128290612834565b60405180910390fd5b3373ffffffffffffffffffffffffffffffffffffffff16600482815481106112b6576112b561242d565b5b905f5260205f2090600c02016001015f9054906101000a900473ffffffffffffffffffffffffffffffffffffffff1673ffffffffffffffffffffffffffffffffffffffff161461133b576040517f08c379a0000000000000000000000000000000000000000000000000000000008152600401611332906129af565b60405180910390fd5b6004818154811061134f5761134e61242d565b5b905f5260205f2090600c020160040154600482815481106113735761137261242d565b5b905f5260205f2090600c020160050154106114ae575f6004828154811061139d5761139c61242d565b5b905f5260205f2090600c0201600501549050600482815481106113c3576113c261242d565b5b905f5260205f2090600c02016001015f9054906101000a900473ffffffffffffffffffffffffffffffffffffffff1673ffffffffffffffffffffffffffffffffffffffff166108fc8290811502906040515f60405180830381858888f19350505050158015611434573d5f803e3d5ffd5b50426004838154811061144a5761144961242d565b5b905f5260205f2090600c0201600a01819055506001600483815481106114735761147261242d565b5b905f5260205f2090600c02016009015f6101000a81548160ff021916908360028111156114a3576114a2611d13565b5b021790555050611621565b42600482815481106114c3576114c261242d565b5b905f5260205f2090600c02016006015411611620575f5b60025f8381526020019081526020015f20805490508110156115d3575f60025f8481526020019081526020015f20828154811061151a5761151961242d565b5b905f5260205f2090600202015f015f9054906101000a900473ffffffffffffffffffffffffffffffffffffffff1690505f60025f8581526020019081526020015f20838154811061156e5761156d61242d565b5b905f5260205f2090600202016001015490508173ffffffffffffffffffffffffffffffffffffffff166108fc8290811502906040515f60405180830381858888f193505050501580156115c3573d5f803e3d5ffd5b50505080806001019150506114da565b506002600482815481106115ea576115e961242d565b5b905f5260205f2090600c02016009015f6101000a81548160ff0219169083600281111561161a57611619611d13565b5b02179055505b5b5050565b5f60015f9054906101000a900473ffffffffffffffffffffffffffffffffffffffff1673ffffffffffffffffffffffffffffffffffffffff166370a08231836040518263ffffffff1660e01b815260040161168091906120b0565b602060405180830381865afa15801561169b573d5f803e3d5ffd5b505050506040513d601f19601f820116820180604052508101906116bf91906121ab565b9050919050565b5f33905090565b6040518061018001604052805f81526020015f73ffffffffffffffffffffffffffffffffffffffff16815260200160608152602001606081526020015f81526020015f81526020015f81526020015f81526020015f81526020015f600281111561173a57611739611d13565b5b81526020015f81526020015f81525090565b60405180604001604052805f73ffffffffffffffffffffffffffffffffffffffff1681526020015f81525090565b5f604051905090565b5f80fd5b5f80fd5b5f73ffffffffffffffffffffffffffffffffffffffff82169050919050565b5f6117b48261178b565b9050919050565b6117c4816117aa565b81146117ce575f80fd5b50565b5f813590506117df816117bb565b92915050565b5f819050919050565b6117f7816117e5565b8114611801575f80fd5b50565b5f81359050611812816117ee565b92915050565b5f806040838503121561182e5761182d611783565b5b5f61183b858286016117d1565b925050602061184c85828601611804565b9150509250929050565b5f8115159050919050565b61186a81611856565b82525050565b5f6020820190506118835f830184611861565b92915050565b5f806040838503121561189f5761189e611783565b5b5f6118ac858286016117d1565b92505060206118bd858286016117d1565b9150509250929050565b6118d0816117e5565b82525050565b5f6020820190506118e95f8301846118c7565b92915050565b5f819050919050565b5f61191261190d6119088461178b565b6118ef565b61178b565b9050919050565b5f611923826118f8565b9050919050565b5f61193482611919565b9050919050565b6119448161192a565b82525050565b5f60208201905061195d5f83018461193b565b92915050565b5f80fd5b5f601f19601f8301169050919050565b7f4e487b71000000000000000000000000000000000000000000000000000000005f52604160045260245ffd5b6119ad82611967565b810181811067ffffffffffffffff821117156119cc576119cb611977565b5b80604052505050565b5f6119de61177a565b90506119ea82826119a4565b919050565b5f67ffffffffffffffff821115611a0957611a08611977565b5b602082029050919050565b5f80fd5b5f80fd5b5f67ffffffffffffffff821115611a3657611a35611977565b5b611a3f82611967565b9050602081019050919050565b828183375f83830152505050565b5f611a6c611a6784611a1c565b6119d5565b905082815260208101848484011115611a8857611a87611a18565b5b611a93848285611a4c565b509392505050565b5f82601f830112611aaf57611aae611963565b5b8135611abf848260208601611a5a565b91505092915050565b5f611ada611ad5846119ef565b6119d5565b90508060208402830185811115611af457611af3611a14565b5b835b81811015611b3b57803567ffffffffffffffff811115611b1957611b18611963565b5b808601611b268982611a9b565b85526020850194505050602081019050611af6565b5050509392505050565b5f82601f830112611b5957611b58611963565b5b6002611b66848285611ac8565b91505092915050565b5f805f805f60a08688031215611b8857611b87611783565b5b5f86013567ffffffffffffffff811115611ba557611ba4611787565b5b611bb188828901611b45565b9550506020611bc288828901611804565b9450506040611bd388828901611804565b9350506060611be488828901611804565b9250506080611bf588828901611804565b9150509295509295909350565b5f805f60608486031215611c1957611c18611783565b5b5f611c26868287016117d1565b9350506020611c37868287016117d1565b9250506040611c4886828701611804565b9150509250925092565b5f81519050919050565b5f82825260208201905092915050565b5f819050602082019050919050565b611c84816117e5565b82525050565b611c93816117aa565b82525050565b5f81519050919050565b5f82825260208201905092915050565b5f5b83811015611cd0578082015181840152602081019050611cb5565b5f8484015250505050565b5f611ce582611c99565b611cef8185611ca3565b9350611cff818560208601611cb3565b611d0881611967565b840191505092915050565b7f4e487b71000000000000000000000000000000000000000000000000000000005f52602160045260245ffd5b60038110611d5157611d50611d13565b5b50565b5f819050611d6182611d40565b919050565b5f611d7082611d54565b9050919050565b611d8081611d66565b82525050565b5f61018083015f830151611d9c5f860182611c7b565b506020830151611daf6020860182611c8a565b5060408301518482036040860152611dc78282611cdb565b91505060608301518482036060860152611de18282611cdb565b9150506080830151611df66080860182611c7b565b5060a0830151611e0960a0860182611c7b565b5060c0830151611e1c60c0860182611c7b565b5060e0830151611e2f60e0860182611c7b565b50610100830151611e44610100860182611c7b565b50610120830151611e59610120860182611d77565b50610140830151611e6e610140860182611c7b565b50610160830151611e83610160860182611c7b565b508091505092915050565b5f611e998383611d86565b905092915050565b5f602082019050919050565b5f611eb782611c52565b611ec18185611c5c565b935083602082028501611ed385611c6c565b805f5b85811015611f0e5784840389528151611eef8582611e8e565b9450611efa83611ea1565b925060208a01995050600181019050611ed6565b50829750879550505050505092915050565b5f6020820190508181035f830152611f388184611ead565b905092915050565b5f60208284031215611f5557611f54611783565b5b5f611f6284828501611804565b91505092915050565b5f61018083015f830151611f815f860182611c7b565b506020830151611f946020860182611c8a565b5060408301518482036040860152611fac8282611cdb565b91505060608301518482036060860152611fc68282611cdb565b9150506080830151611fdb6080860182611c7b565b5060a0830151611fee60a0860182611c7b565b5060c083015161200160c0860182611c7b565b5060e083015161201460e0860182611c7b565b50610100830151612029610100860182611c7b565b5061012083015161203e610120860182611d77565b50610140830151612053610140860182611c7b565b50610160830151612068610160860182611c7b565b508091505092915050565b5f6040820190506120865f830185611861565b81810360208301526120988184611f6b565b90509392505050565b6120aa816117aa565b82525050565b5f6020820190506120c35f8301846120a1565b92915050565b5f602082840312156120de576120dd611783565b5b5f6120eb848285016117d1565b91505092915050565b5f6040820190506121075f8301856120a1565b61211460208301846118c7565b9392505050565b61212481611856565b811461212e575f80fd5b50565b5f8151905061213f8161211b565b92915050565b5f6020828403121561215a57612159611783565b5b5f61216784828501612131565b91505092915050565b5f6040820190506121835f8301856120a1565b61219060208301846120a1565b9392505050565b5f815190506121a5816117ee565b92915050565b5f602082840312156121c0576121bf611783565b5b5f6121cd84828501612197565b91505092915050565b5f82825260208201905092915050565b7fe69c80e5b091e8a681e5a4a7e4ba8e30000000000000000000000000000000005f82015250565b5f61221a6010836121d6565b9150612225826121e6565b602082019050919050565b5f6020820190508181035f8301526122478161220e565b9050919050565b7f4e487b71000000000000000000000000000000000000000000000000000000005f52601160045260245ffd5b5f612285826117e5565b9150612290836117e5565b92508282019050808211156122a8576122a761224e565b5b92915050565b7fe8b685e697b6e4ba8600000000000000000000000000000000000000000000005f82015250565b5f6122e26009836121d6565b91506122ed826122ae565b602082019050919050565b5f6020820190508181035f83015261230f816122d6565b9050919050565b7fe69c80e5b08fe98791e9a29de8a681e5a4a7e4ba8e30000000000000000000005f82015250565b5f61234a6016836121d6565b915061235582612316565b602082019050919050565b5f6020820190508181035f8301526123778161233e565b9050919050565b7f6d696e56616c756550657263656e7420697320696e76616c69640000000000005f82015250565b5f6123b2601a836121d6565b91506123bd8261237e565b602082019050919050565b5f6020820190508181035f8301526123df816123a6565b9050919050565b5f6123f0826117e5565b91507fffffffffffffffffffffffffffffffffffffffffffffffffffffffffffffffff82036124225761242161224e565b5b600182019050919050565b7f4e487b71000000000000000000000000000000000000000000000000000000005f52603260045260245ffd5b7f4e487b71000000000000000000000000000000000000000000000000000000005f52602260045260245ffd5b5f600282049050600182168061249e57607f821691505b6020821081036124b1576124b061245a565b5b50919050565b5f819050815f5260205f209050919050565b5f6020601f8301049050919050565b5f82821b905092915050565b5f600883026125137fffffffffffffffffffffffffffffffffffffffffffffffffffffffffffffffff826124d8565b61251d86836124d8565b95508019841693508086168417925050509392505050565b5f61254f61254a612545846117e5565b6118ef565b6117e5565b9050919050565b5f819050919050565b61256883612535565b61257c61257482612556565b8484546124e4565b825550505050565b5f90565b612590612584565b61259b81848461255f565b505050565b5b818110156125be576125b35f82612588565b6001810190506125a1565b5050565b601f821115612603576125d4816124b7565b6125dd846124c9565b810160208510156125ec578190505b6126006125f8856124c9565b8301826125a0565b50505b505050565b5f82821c905092915050565b5f6126235f1984600802612608565b1980831691505092915050565b5f61263b8383612614565b9150826002028217905092915050565b61265482611c99565b67ffffffffffffffff81111561266d5761266c611977565b5b6126778254612487565b6126828282856125c2565b5f60209050601f8311600181146126b3575f84156126a1578287015190505b6126ab8582612630565b865550612712565b601f1984166126c1866124b7565b5f5b828110156126e8578489015182556001820191506020850194506020810190506126c3565b868310156127055784890151612701601f891682612614565b8355505b6001600288020188555050505b505050505050565b5f60608201905061272d5f8301866120a1565b61273a60208301856120a1565b61274760408301846118c7565b949350505050565b5f612759826117e5565b9150612764836117e5565b925082820390508181111561277c5761277b61224e565b5b92915050565b7f4964e4b88de5ad98e59ca80000000000000000000000000000000000000000005f82015250565b5f6127b6600b836121d6565b91506127c182612782565b602082019050919050565b5f6020820190508181035f8301526127e3816127aa565b9050919050565b7fe6b4bbe58aa8e5b7b2e7bb8fe7bb93e69d9f00000000000000000000000000005f82015250565b5f61281e6012836121d6565b9150612829826127ea565b602082019050919050565b5f6020820190508181035f83015261284b81612812565b9050919050565b7fe69c80e5b08fe98791e9a29de4b88de4b88de6ada3e7a1ae00000000000000005f82015250565b5f6128866018836121d6565b915061289182612852565b602082019050919050565b5f6020820190508181035f8301526128b38161287a565b9050919050565b7fe58cbae59d97e697b6e997b4e99499e8afafefbc8ce5b7b2e8b685e697b600005f82015250565b5f6128ee601e836121d6565b91506128f9826128ba565b602082019050919050565b5f6020820190508181035f83015261291b816128e2565b9050919050565b5f6080820190506129355f8301876118c7565b61294260208301866120a1565b61294f60408301856118c7565b61295c60608301846118c7565b95945050505050565b7fe6b2a1e69c89e69d83e9999000000000000000000000000000000000000000005f82015250565b5f612999600c836121d6565b91506129a482612965565b602082019050919050565b5f6020820190508181035f8301526129c68161298d565b905091905056fea26469706673582212206d77579a86a3aedfc63f975645c2d01159e07eb2e118e370c9b0b0884459f16364736f6c63430008160033",
			"opcodes": "PUSH1 0x80 PUSH1 0x40 MSTORE PUSH20 0xD250874B5E299BE984EB3BAF19353A90F285E84D PUSH0 DUP1 PUSH2 0x100 EXP DUP2 SLOAD DUP2 PUSH20 0xFFFFFFFFFFFFFFFFFFFFFFFFFFFFFFFFFFFFFFFF MUL NOT AND SWAP1 DUP4 PUSH20 0xFFFFFFFFFFFFFFFFFFFFFFFFFFFFFFFFFFFFFFFF AND MUL OR SWAP1 SSTORE POP CALLVALUE DUP1 ISZERO PUSH2 0x62 JUMPI PUSH0 DUP1 REVERT JUMPDEST POP PUSH0 DUP1 SLOAD SWAP1 PUSH2 0x100 EXP SWAP1 DIV PUSH20 0xFFFFFFFFFFFFFFFFFFFFFFFFFFFFFFFFFFFFFFFF AND PUSH1 0x1 PUSH0 PUSH2 0x100 EXP DUP2 SLOAD DUP2 PUSH20 0xFFFFFFFFFFFFFFFFFFFFFFFFFFFFFFFFFFFFFFFF MUL NOT AND SWAP1 DUP4 PUSH20 0xFFFFFFFFFFFFFFFFFFFFFFFFFFFFFFFFFFFFFFFF AND MUL OR SWAP1 SSTORE POP PUSH2 0x2A03 DUP1 PUSH2 0xCF PUSH0 CODECOPY PUSH0 RETURN INVALID PUSH1 0x80 PUSH1 0x40 MSTORE PUSH1 0x4 CALLDATASIZE LT PUSH2 0xDF JUMPI PUSH0 CALLDATALOAD PUSH1 0xE0 SHR DUP1 PUSH4 0x823CF33A GT PUSH2 0x7E JUMPI DUP1 PUSH4 0xC290D691 GT PUSH2 0x58 JUMPI DUP1 PUSH4 0xC290D691 EQ PUSH2 0x2E5 JUMPI DUP1 PUSH4 0xD353A1CB EQ PUSH2 0x301 JUMPI DUP1 PUSH4 0xD92C183A EQ PUSH2 0x329 JUMPI DUP1 PUSH4 0xDB613E81 EQ PUSH2 0x365 JUMPI PUSH2 0xE6 JUMP JUMPDEST DUP1 PUSH4 0x823CF33A EQ PUSH2 0x254 JUMPI DUP1 PUSH4 0x922635D8 EQ PUSH2 0x27E JUMPI DUP1 PUSH4 0x96493566 EQ PUSH2 0x2BB JUMPI PUSH2 0xE6 JUMP JUMPDEST DUP1 PUSH4 0x4515F7AD GT PUSH2 0xBA JUMPI DUP1 PUSH4 0x4515F7AD EQ PUSH2 0x18A JUMPI DUP1 PUSH4 0x56998531 EQ PUSH2 0x1C6 JUMPI DUP1 PUSH4 0x5CFF09F5 EQ PUSH2 0x1F0 JUMPI DUP1 PUSH4 0x64F3AD52 EQ PUSH2 0x218 JUMPI PUSH2 0xE6 JUMP JUMPDEST DUP1 PUSH3 0xFE6A77 EQ PUSH2 0xE8 JUMPI DUP1 PUSH4 0x205ABD25 EQ PUSH2 0x124 JUMPI DUP1 PUSH4 0x2DA5E572 EQ PUSH2 0x160 JUMPI PUSH2 0xE6 JUMP JUMPDEST CALLDATASIZE PUSH2 0xE6 JUMPI STOP JUMPDEST STOP JUMPDEST CALLVALUE DUP1 ISZERO PUSH2 0xF3 JUMPI PUSH0 DUP1 REVERT JUMPDEST POP PUSH2 0x10E PUSH1 0x4 DUP1 CALLDATASIZE SUB DUP2 ADD SWAP1 PUSH2 0x109 SWAP2 SWAP1 PUSH2 0x1818 JUMP JUMPDEST PUSH2 0x38F JUMP JUMPDEST PUSH1 0x40 MLOAD PUSH2 0x11B SWAP2 SWAP1 PUSH2 0x1870 JUMP JUMPDEST PUSH1 0x40 MLOAD DUP1 SWAP2 SUB SWAP1 RETURN JUMPDEST CALLVALUE DUP1 ISZERO PUSH2 0x12F JUMPI PUSH0 DUP1 REVERT JUMPDEST POP PUSH2 0x14A PUSH1 0x4 DUP1 CALLDATASIZE SUB DUP2 ADD SWAP1 PUSH2 0x145 SWAP2 SWAP1 PUSH2 0x1889 JUMP JUMPDEST PUSH2 0x439 JUMP JUMPDEST PUSH1 0x40 MLOAD PUSH2 0x157 SWAP2 SWAP1 PUSH2 0x18D6 JUMP JUMPDEST PUSH1 0x40 MLOAD DUP1 SWAP2 SUB SWAP1 RETURN JUMPDEST CALLVALUE DUP1 ISZERO PUSH2 0x16B JUMPI PUSH0 DUP1 REVERT JUMPDEST POP PUSH2 0x174 PUSH2 0x4DD JUMP JUMPDEST PUSH1 0x40 MLOAD PUSH2 0x181 SWAP2 SWAP1 PUSH2 0x194A JUMP JUMPDEST PUSH1 0x40 MLOAD DUP1 SWAP2 SUB SWAP1 RETURN JUMPDEST CALLVALUE DUP1 ISZERO PUSH2 0x195 JUMPI PUSH0 DUP1 REVERT JUMPDEST POP PUSH2 0x1B0 PUSH1 0x4 DUP1 CALLDATASIZE SUB DUP2 ADD SWAP1 PUSH2 0x1AB SWAP2 SWAP1 PUSH2 0x1818 JUMP JUMPDEST PUSH2 0x502 JUMP JUMPDEST PUSH1 0x40 MLOAD PUSH2 0x1BD SWAP2 SWAP1 PUSH2 0x1870 JUMP JUMPDEST PUSH1 0x40 MLOAD DUP1 SWAP2 SUB SWAP1 RETURN JUMPDEST CALLVALUE DUP1 ISZERO PUSH2 0x1D1 JUMPI PUSH0 DUP1 REVERT JUMPDEST POP PUSH2 0x1DA PUSH2 0x5AC JUMP JUMPDEST PUSH1 0x40 MLOAD PUSH2 0x1E7 SWAP2 SWAP1 PUSH2 0x18D6 JUMP JUMPDEST PUSH1 0x40 MLOAD DUP1 SWAP2 SUB SWAP1 RETURN JUMPDEST CALLVALUE DUP1 ISZERO PUSH2 0x1FB JUMPI PUSH0 DUP1 REVERT JUMPDEST POP PUSH2 0x216 PUSH1 0x4 DUP1 CALLDATASIZE SUB DUP2 ADD SWAP1 PUSH2 0x211 SWAP2 SWAP1 PUSH2 0x1B6F JUMP JUMPDEST PUSH2 0x5B2 JUMP JUMPDEST STOP JUMPDEST CALLVALUE DUP1 ISZERO PUSH2 0x223 JUMPI PUSH0 DUP1 REVERT JUMPDEST POP PUSH2 0x23E PUSH1 0x4 DUP1 CALLDATASIZE SUB DUP2 ADD SWAP1 PUSH2 0x239 SWAP2 SWAP1 PUSH2 0x1C02 JUMP JUMPDEST PUSH2 0x8F8 JUMP JUMPDEST PUSH1 0x40 MLOAD PUSH2 0x24B SWAP2 SWAP1 PUSH2 0x1870 JUMP JUMPDEST PUSH1 0x40 MLOAD DUP1 SWAP2 SUB SWAP1 RETURN JUMPDEST CALLVALUE DUP1 ISZERO PUSH2 0x25F JUMPI PUSH0 DUP1 REVERT JUMPDEST POP PUSH2 0x268 PUSH2 0x9A5 JUMP JUMPDEST PUSH1 0x40 MLOAD PUSH2 0x275 SWAP2 SWAP1 PUSH2 0x1F20 JUMP JUMPDEST PUSH1 0x40 MLOAD DUP1 SWAP2 SUB SWAP1 RETURN JUMPDEST CALLVALUE DUP1 ISZERO PUSH2 0x289 JUMPI PUSH0 DUP1 REVERT JUMPDEST POP PUSH2 0x2A4 PUSH1 0x4 DUP1 CALLDATASIZE SUB DUP2 ADD SWAP1 PUSH2 0x29F SWAP2 SWAP1 PUSH2 0x1F40 JUMP JUMPDEST PUSH2 0xC00 JUMP JUMPDEST PUSH1 0x40 MLOAD PUSH2 0x2B2 SWAP3 SWAP2 SWAP1 PUSH2 0x2073 JUMP JUMPDEST PUSH1 0x40 MLOAD DUP1 SWAP2 SUB SWAP1 RETURN JUMPDEST CALLVALUE DUP1 ISZERO PUSH2 0x2C6 JUMPI PUSH0 DUP1 REVERT JUMPDEST POP PUSH2 0x2CF PUSH2 0xE78 JUMP JUMPDEST PUSH1 0x40 MLOAD PUSH2 0x2DC SWAP2 SWAP1 PUSH2 0x20B0 JUMP JUMPDEST PUSH1 0x40 MLOAD DUP1 SWAP2 SUB SWAP1 RETURN JUMPDEST PUSH2 0x2FF PUSH1 0x4 DUP1 CALLDATASIZE SUB DUP2 ADD SWAP1 PUSH2 0x2FA SWAP2 SWAP1 PUSH2 0x1F40 JUMP JUMPDEST PUSH2 0xE9B JUMP JUMPDEST STOP JUMPDEST CALLVALUE DUP1 ISZERO PUSH2 0x30C JUMPI PUSH0 DUP1 REVERT JUMPDEST POP PUSH2 0x327 PUSH1 0x4 DUP1 CALLDATASIZE SUB DUP2 ADD SWAP1 PUSH2 0x322 SWAP2 SWAP1 PUSH2 0x1F40 JUMP JUMPDEST PUSH2 0x11A1 JUMP JUMPDEST STOP JUMPDEST CALLVALUE DUP1 ISZERO PUSH2 0x334 JUMPI PUSH0 DUP1 REVERT JUMPDEST POP PUSH2 0x34F PUSH1 0x4 DUP1 CALLDATASIZE SUB DUP2 ADD SWAP1 PUSH2 0x34A SWAP2 SWAP1 PUSH2 0x20C9 JUMP JUMPDEST PUSH2 0x1625 JUMP JUMPDEST PUSH1 0x40 MLOAD PUSH2 0x35C SWAP2 SWAP1 PUSH2 0x18D6 JUMP JUMPDEST PUSH1 0x40 MLOAD DUP1 SWAP2 SUB SWAP1 RETURN JUMPDEST CALLVALUE DUP1 ISZERO PUSH2 0x370 JUMPI PUSH0 DUP1 REVERT JUMPDEST POP PUSH2 0x379 PUSH2 0x16C6 JUMP JUMPDEST PUSH1 0x40 MLOAD PUSH2 0x386 SWAP2 SWAP1 PUSH2 0x20B0 JUMP JUMPDEST PUSH1 0x40 MLOAD DUP1 SWAP2 SUB SWAP1 RETURN JUMPDEST PUSH0 DUP1 PUSH1 0x1 PUSH0 SWAP1 SLOAD SWAP1 PUSH2 0x100 EXP SWAP1 DIV PUSH20 0xFFFFFFFFFFFFFFFFFFFFFFFFFFFFFFFFFFFFFFFF AND PUSH20 0xFFFFFFFFFFFFFFFFFFFFFFFFFFFFFFFFFFFFFFFF AND PUSH4 0x95EA7B3 DUP6 DUP6 PUSH1 0x40 MLOAD DUP4 PUSH4 0xFFFFFFFF AND PUSH1 0xE0 SHL DUP2 MSTORE PUSH1 0x4 ADD PUSH2 0x3ED SWAP3 SWAP2 SWAP1 PUSH2 0x20F4 JUMP JUMPDEST PUSH1 0x20 PUSH1 0x40 MLOAD DUP1 DUP4 SUB DUP2 PUSH0 DUP8 GAS CALL ISZERO DUP1 ISZERO PUSH2 0x409 JUMPI RETURNDATASIZE PUSH0 DUP1 RETURNDATACOPY RETURNDATASIZE PUSH0 REVERT JUMPDEST POP POP POP POP PUSH1 0x40 MLOAD RETURNDATASIZE PUSH1 0x1F NOT PUSH1 0x1F DUP3 ADD AND DUP3 ADD DUP1 PUSH1 0x40 MSTORE POP DUP2 ADD SWAP1 PUSH2 0x42D SWAP2 SWAP1 PUSH2 0x2145 JUMP JUMPDEST SWAP1 POP DUP1 SWAP2 POP POP SWAP3 SWAP2 POP POP JUMP JUMPDEST PUSH0 PUSH1 0x1 PUSH0 SWAP1 SLOAD SWAP1 PUSH2 0x100 EXP SWAP1 DIV PUSH20 0xFFFFFFFFFFFFFFFFFFFFFFFFFFFFFFFFFFFFFFFF AND PUSH20 0xFFFFFFFFFFFFFFFFFFFFFFFFFFFFFFFFFFFFFFFF AND PUSH4 0xC5D31BEC DUP5 DUP5 PUSH1 0x40 MLOAD DUP4 PUSH4 0xFFFFFFFF AND PUSH1 0xE0 SHL DUP2 MSTORE PUSH1 0x4 ADD PUSH2 0x496 SWAP3 SWAP2 SWAP1 PUSH2 0x2170 JUMP JUMPDEST PUSH1 0x20 PUSH1 0x40 MLOAD DUP1 DUP4 SUB DUP2 DUP7 GAS STATICCALL ISZERO DUP1 ISZERO PUSH2 0x4B1 JUMPI RETURNDATASIZE PUSH0 DUP1 RETURNDATACOPY RETURNDATASIZE PUSH0 REVERT JUMPDEST POP POP POP POP PUSH1 0x40 MLOAD RETURNDATASIZE PUSH1 0x1F NOT PUSH1 0x1F DUP3 ADD AND DUP3 ADD DUP1 PUSH1 0x40 MSTORE POP DUP2 ADD SWAP1 PUSH2 0x4D5 SWAP2 SWAP1 PUSH2 0x21AB JUMP JUMPDEST SWAP1 POP SWAP3 SWAP2 POP POP JUMP JUMPDEST PUSH1 0x1 PUSH0 SWAP1 SLOAD SWAP1 PUSH2 0x100 EXP SWAP1 DIV PUSH20 0xFFFFFFFFFFFFFFFFFFFFFFFFFFFFFFFFFFFFFFFF AND DUP2 JUMP JUMPDEST PUSH0 DUP1 PUSH1 0x1 PUSH0 SWAP1 SLOAD SWAP1 PUSH2 0x100 EXP SWAP1 DIV PUSH20 0xFFFFFFFFFFFFFFFFFFFFFFFFFFFFFFFFFFFFFFFF AND PUSH20 0xFFFFFFFFFFFFFFFFFFFFFFFFFFFFFFFFFFFFFFFF AND PUSH4 0xA9059CBB DUP6 DUP6 PUSH1 0x40 MLOAD DUP4 PUSH4 0xFFFFFFFF AND PUSH1 0xE0 SHL DUP2 MSTORE PUSH1 0x4 ADD PUSH2 0x560 SWAP3 SWAP2 SWAP1 PUSH2 0x20F4 JUMP JUMPDEST PUSH1 0x20 PUSH1 0x40 MLOAD DUP1 DUP4 SUB DUP2 PUSH0 DUP8 GAS CALL ISZERO DUP1 ISZERO PUSH2 0x57C JUMPI RETURNDATASIZE PUSH0 DUP1 RETURNDATACOPY RETURNDATASIZE PUSH0 REVERT JUMPDEST POP POP POP POP PUSH1 0x40 MLOAD RETURNDATASIZE PUSH1 0x1F NOT PUSH1 0x1F DUP3 ADD AND DUP3 ADD DUP1 PUSH1 0x40 MSTORE POP DUP2 ADD SWAP1 PUSH2 0x5A0 SWAP2 SWAP1 PUSH2 0x2145 JUMP JUMPDEST SWAP1 POP DUP1 SWAP2 POP POP SWAP3 SWAP2 POP POP JUMP JUMPDEST PUSH1 0x3 SLOAD DUP2 JUMP JUMPDEST DUP4 DUP4 DUP4 DUP4 PUSH0 DUP5 GT PUSH2 0x5F8 JUMPI PUSH1 0x40 MLOAD PUSH32 0x8C379A000000000000000000000000000000000000000000000000000000000 DUP2 MSTORE PUSH1 0x4 ADD PUSH2 0x5EF SWAP1 PUSH2 0x2230 JUMP JUMPDEST PUSH1 0x40 MLOAD DUP1 SWAP2 SUB SWAP1 REVERT JUMPDEST PUSH1 0xF TIMESTAMP PUSH2 0x605 SWAP2 SWAP1 PUSH2 0x227B JUMP JUMPDEST DUP4 GT PUSH2 0x646 JUMPI PUSH1 0x40 MLOAD PUSH32 0x8C379A000000000000000000000000000000000000000000000000000000000 DUP2 MSTORE PUSH1 0x4 ADD PUSH2 0x63D SWAP1 PUSH2 0x22F8 JUMP JUMPDEST PUSH1 0x40 MLOAD DUP1 SWAP2 SUB SWAP1 REVERT JUMPDEST PUSH0 DUP3 GT PUSH2 0x688 JUMPI PUSH1 0x40 MLOAD PUSH32 0x8C379A000000000000000000000000000000000000000000000000000000000 DUP2 MSTORE PUSH1 0x4 ADD PUSH2 0x67F SWAP1 PUSH2 0x2360 JUMP JUMPDEST PUSH1 0x40 MLOAD DUP1 SWAP2 SUB SWAP1 REVERT JUMPDEST PUSH1 0x32 DUP2 LT ISZERO PUSH2 0x6CC JUMPI PUSH1 0x40 MLOAD PUSH32 0x8C379A000000000000000000000000000000000000000000000000000000000 DUP2 MSTORE PUSH1 0x4 ADD PUSH2 0x6C3 SWAP1 PUSH2 0x23C8 JUMP JUMPDEST PUSH1 0x40 MLOAD DUP1 SWAP2 SUB SWAP1 REVERT JUMPDEST PUSH2 0x6D4 PUSH2 0x16CD JUMP JUMPDEST PUSH1 0x3 PUSH0 DUP2 SLOAD PUSH2 0x6E2 SWAP1 PUSH2 0x23E6 JUMP JUMPDEST SWAP2 SWAP1 POP DUP2 SWAP1 SSTORE DUP2 PUSH0 ADD DUP2 DUP2 MSTORE POP POP CALLER DUP2 PUSH1 0x20 ADD SWAP1 PUSH20 0xFFFFFFFFFFFFFFFFFFFFFFFFFFFFFFFFFFFFFFFF AND SWAP1 DUP2 PUSH20 0xFFFFFFFFFFFFFFFFFFFFFFFFFFFFFFFFFFFFFFFF AND DUP2 MSTORE POP POP DUP10 PUSH0 PUSH1 0x2 DUP2 LT PUSH2 0x73B JUMPI PUSH2 0x73A PUSH2 0x242D JUMP JUMPDEST JUMPDEST PUSH1 0x20 MUL ADD MLOAD DUP2 PUSH1 0x40 ADD DUP2 SWAP1 MSTORE POP DUP10 PUSH1 0x1 PUSH1 0x2 DUP2 LT PUSH2 0x75C JUMPI PUSH2 0x75B PUSH2 0x242D JUMP JUMPDEST JUMPDEST PUSH1 0x20 MUL ADD MLOAD DUP2 PUSH1 0x60 ADD DUP2 SWAP1 MSTORE POP DUP9 DUP2 PUSH1 0x80 ADD DUP2 DUP2 MSTORE POP POP DUP8 DUP2 PUSH1 0xC0 ADD DUP2 DUP2 MSTORE POP POP DUP7 DUP2 PUSH1 0xE0 ADD DUP2 DUP2 MSTORE POP POP DUP6 DUP2 PUSH2 0x100 ADD DUP2 DUP2 MSTORE POP POP PUSH0 DUP2 PUSH2 0x120 ADD SWAP1 PUSH1 0x2 DUP2 GT ISZERO PUSH2 0x7AB JUMPI PUSH2 0x7AA PUSH2 0x1D13 JUMP JUMPDEST JUMPDEST SWAP1 DUP2 PUSH1 0x2 DUP2 GT ISZERO PUSH2 0x7BF JUMPI PUSH2 0x7BE PUSH2 0x1D13 JUMP JUMPDEST JUMPDEST DUP2 MSTORE POP POP TIMESTAMP DUP2 PUSH2 0x160 ADD DUP2 DUP2 MSTORE POP POP PUSH1 0x4 DUP2 SWAP1 DUP1 PUSH1 0x1 DUP2 SLOAD ADD DUP1 DUP3 SSTORE DUP1 SWAP2 POP POP PUSH1 0x1 SWAP1 SUB SWAP1 PUSH0 MSTORE PUSH1 0x20 PUSH0 KECCAK256 SWAP1 PUSH1 0xC MUL ADD PUSH0 SWAP1 SWAP2 SWAP1 SWAP2 SWAP1 SWAP2 POP PUSH0 DUP3 ADD MLOAD DUP2 PUSH0 ADD SSTORE PUSH1 0x20 DUP3 ADD MLOAD DUP2 PUSH1 0x1 ADD PUSH0 PUSH2 0x100 EXP DUP2 SLOAD DUP2 PUSH20 0xFFFFFFFFFFFFFFFFFFFFFFFFFFFFFFFFFFFFFFFF MUL NOT AND SWAP1 DUP4 PUSH20 0xFFFFFFFFFFFFFFFFFFFFFFFFFFFFFFFFFFFFFFFF AND MUL OR SWAP1 SSTORE POP PUSH1 0x40 DUP3 ADD MLOAD DUP2 PUSH1 0x2 ADD SWAP1 DUP2 PUSH2 0x85A SWAP2 SWAP1 PUSH2 0x264B JUMP JUMPDEST POP PUSH1 0x60 DUP3 ADD MLOAD DUP2 PUSH1 0x3 ADD SWAP1 DUP2 PUSH2 0x870 SWAP2 SWAP1 PUSH2 0x264B JUMP JUMPDEST POP PUSH1 0x80 DUP3 ADD MLOAD DUP2 PUSH1 0x4 ADD SSTORE PUSH1 0xA0 DUP3 ADD MLOAD DUP2 PUSH1 0x5 ADD SSTORE PUSH1 0xC0 DUP3 ADD MLOAD DUP2 PUSH1 0x6 ADD SSTORE PUSH1 0xE0 DUP3 ADD MLOAD DUP2 PUSH1 0x7 ADD SSTORE PUSH2 0x100 DUP3 ADD MLOAD DUP2 PUSH1 0x8 ADD SSTORE PUSH2 0x120 DUP3 ADD MLOAD DUP2 PUSH1 0x9 ADD PUSH0 PUSH2 0x100 EXP DUP2 SLOAD DUP2 PUSH1 0xFF MUL NOT AND SWAP1 DUP4 PUSH1 0x2 DUP2 GT ISZERO PUSH2 0x8CF JUMPI PUSH2 0x8CE PUSH2 0x1D13 JUMP JUMPDEST JUMPDEST MUL OR SWAP1 SSTORE POP PUSH2 0x140 DUP3 ADD MLOAD DUP2 PUSH1 0xA ADD SSTORE PUSH2 0x160 DUP3 ADD MLOAD DUP2 PUSH1 0xB ADD SSTORE POP POP POP POP POP POP POP POP POP POP POP POP JUMP JUMPDEST PUSH0 DUP1 PUSH1 0x1 PUSH0 SWAP1 SLOAD SWAP1 PUSH2 0x100 EXP SWAP1 DIV PUSH20 0xFFFFFFFFFFFFFFFFFFFFFFFFFFFFFFFFFFFFFFFF AND PUSH20 0xFFFFFFFFFFFFFFFFFFFFFFFFFFFFFFFFFFFFFFFF AND PUSH4 0x23B872DD DUP7 DUP7 DUP7 PUSH1 0x40 MLOAD DUP5 PUSH4 0xFFFFFFFF AND PUSH1 0xE0 SHL DUP2 MSTORE PUSH1 0x4 ADD PUSH2 0x958 SWAP4 SWAP3 SWAP2 SWAP1 PUSH2 0x271A JUMP JUMPDEST PUSH1 0x20 PUSH1 0x40 MLOAD DUP1 DUP4 SUB DUP2 PUSH0 DUP8 GAS CALL ISZERO DUP1 ISZERO PUSH2 0x974 JUMPI RETURNDATASIZE PUSH0 DUP1 RETURNDATACOPY RETURNDATASIZE PUSH0 REVERT JUMPDEST POP POP POP POP PUSH1 0x40 MLOAD RETURNDATASIZE PUSH1 0x1F NOT PUSH1 0x1F DUP3 ADD AND DUP3 ADD DUP1 PUSH1 0x40 MSTORE POP DUP2 ADD SWAP1 PUSH2 0x998 SWAP2 SWAP1 PUSH2 0x2145 JUMP JUMPDEST SWAP1 POP DUP1 SWAP2 POP POP SWAP4 SWAP3 POP POP POP JUMP JUMPDEST PUSH1 0x60 PUSH1 0x4 DUP1 SLOAD DUP1 PUSH1 0x20 MUL PUSH1 0x20 ADD PUSH1 0x40 MLOAD SWAP1 DUP2 ADD PUSH1 0x40 MSTORE DUP1 SWAP3 SWAP2 SWAP1 DUP2 DUP2 MSTORE PUSH1 0x20 ADD PUSH0 SWAP1 JUMPDEST DUP3 DUP3 LT ISZERO PUSH2 0xBF7 JUMPI DUP4 DUP3 SWAP1 PUSH0 MSTORE PUSH1 0x20 PUSH0 KECCAK256 SWAP1 PUSH1 0xC MUL ADD PUSH1 0x40 MLOAD DUP1 PUSH2 0x180 ADD PUSH1 0x40 MSTORE SWAP1 DUP2 PUSH0 DUP3 ADD SLOAD DUP2 MSTORE PUSH1 0x20 ADD PUSH1 0x1 DUP3 ADD PUSH0 SWAP1 SLOAD SWAP1 PUSH2 0x100 EXP SWAP1 DIV PUSH20 0xFFFFFFFFFFFFFFFFFFFFFFFFFFFFFFFFFFFFFFFF AND PUSH20 0xFFFFFFFFFFFFFFFFFFFFFFFFFFFFFFFFFFFFFFFF AND PUSH20 0xFFFFFFFFFFFFFFFFFFFFFFFFFFFFFFFFFFFFFFFF AND DUP2 MSTORE PUSH1 0x20 ADD PUSH1 0x2 DUP3 ADD DUP1 SLOAD PUSH2 0xA58 SWAP1 PUSH2 0x2487 JUMP JUMPDEST DUP1 PUSH1 0x1F ADD PUSH1 0x20 DUP1 SWAP2 DIV MUL PUSH1 0x20 ADD PUSH1 0x40 MLOAD SWAP1 DUP2 ADD PUSH1 0x40 MSTORE DUP1 SWAP3 SWAP2 SWAP1 DUP2 DUP2 MSTORE PUSH1 0x20 ADD DUP3 DUP1 SLOAD PUSH2 0xA84 SWAP1 PUSH2 0x2487 JUMP JUMPDEST DUP1 ISZERO PUSH2 0xACF JUMPI DUP1 PUSH1 0x1F LT PUSH2 0xAA6 JUMPI PUSH2 0x100 DUP1 DUP4 SLOAD DIV MUL DUP4 MSTORE SWAP2 PUSH1 0x20 ADD SWAP2 PUSH2 0xACF JUMP JUMPDEST DUP3 ADD SWAP2 SWAP1 PUSH0 MSTORE PUSH1 0x20 PUSH0 KECCAK256 SWAP1 JUMPDEST DUP2 SLOAD DUP2 MSTORE SWAP1 PUSH1 0x1 ADD SWAP1 PUSH1 0x20 ADD DUP1 DUP4 GT PUSH2 0xAB2 JUMPI DUP3 SWAP1 SUB PUSH1 0x1F AND DUP3 ADD SWAP2 JUMPDEST POP POP POP POP POP DUP2 MSTORE PUSH1 0x20 ADD PUSH1 0x3 DUP3 ADD DUP1 SLOAD PUSH2 0xAE8 SWAP1 PUSH2 0x2487 JUMP JUMPDEST DUP1 PUSH1 0x1F ADD PUSH1 0x20 DUP1 SWAP2 DIV MUL PUSH1 0x20 ADD PUSH1 0x40 MLOAD SWAP1 DUP2 ADD PUSH1 0x40 MSTORE DUP1 SWAP3 SWAP2 SWAP1 DUP2 DUP2 MSTORE PUSH1 0x20 ADD DUP3 DUP1 SLOAD PUSH2 0xB14 SWAP1 PUSH2 0x2487 JUMP JUMPDEST DUP1 ISZERO PUSH2 0xB5F JUMPI DUP1 PUSH1 0x1F LT PUSH2 0xB36 JUMPI PUSH2 0x100 DUP1 DUP4 SLOAD DIV MUL DUP4 MSTORE SWAP2 PUSH1 0x20 ADD SWAP2 PUSH2 0xB5F JUMP JUMPDEST DUP3 ADD SWAP2 SWAP1 PUSH0 MSTORE PUSH1 0x20 PUSH0 KECCAK256 SWAP1 JUMPDEST DUP2 SLOAD DUP2 MSTORE SWAP1 PUSH1 0x1 ADD SWAP1 PUSH1 0x20 ADD DUP1 DUP4 GT PUSH2 0xB42 JUMPI DUP3 SWAP1 SUB PUSH1 0x1F AND DUP3 ADD SWAP2 JUMPDEST POP POP POP POP POP DUP2 MSTORE PUSH1 0x20 ADD PUSH1 0x4 DUP3 ADD SLOAD DUP2 MSTORE PUSH1 0x20 ADD PUSH1 0x5 DUP3 ADD SLOAD DUP2 MSTORE PUSH1 0x20 ADD PUSH1 0x6 DUP3 ADD SLOAD DUP2 MSTORE PUSH1 0x20 ADD PUSH1 0x7 DUP3 ADD SLOAD DUP2 MSTORE PUSH1 0x20 ADD PUSH1 0x8 DUP3 ADD SLOAD DUP2 MSTORE PUSH1 0x20 ADD PUSH1 0x9 DUP3 ADD PUSH0 SWAP1 SLOAD SWAP1 PUSH2 0x100 EXP SWAP1 DIV PUSH1 0xFF AND PUSH1 0x2 DUP2 GT ISZERO PUSH2 0xBBE JUMPI PUSH2 0xBBD PUSH2 0x1D13 JUMP JUMPDEST JUMPDEST PUSH1 0x2 DUP2 GT ISZERO PUSH2 0xBD0 JUMPI PUSH2 0xBCF PUSH2 0x1D13 JUMP JUMPDEST JUMPDEST DUP2 MSTORE PUSH1 0x20 ADD PUSH1 0xA DUP3 ADD SLOAD DUP2 MSTORE PUSH1 0x20 ADD PUSH1 0xB DUP3 ADD SLOAD DUP2 MSTORE POP POP DUP2 MSTORE PUSH1 0x20 ADD SWAP1 PUSH1 0x1 ADD SWAP1 PUSH2 0x9C8 JUMP JUMPDEST POP POP POP POP SWAP1 POP SWAP1 JUMP JUMPDEST PUSH0 PUSH2 0xC09 PUSH2 0x16CD JUMP JUMPDEST PUSH2 0xC11 PUSH2 0x16CD JUMP JUMPDEST PUSH1 0x3 SLOAD DUP5 GT DUP1 PUSH2 0xC21 JUMPI POP PUSH0 DUP5 GT ISZERO JUMPDEST ISZERO PUSH2 0xC32 JUMPI PUSH0 DUP2 SWAP3 POP SWAP3 POP POP PUSH2 0xE73 JUMP JUMPDEST PUSH1 0x1 PUSH1 0x4 PUSH1 0x1 DUP7 PUSH2 0xC43 SWAP2 SWAP1 PUSH2 0x274F JUMP JUMPDEST DUP2 SLOAD DUP2 LT PUSH2 0xC54 JUMPI PUSH2 0xC53 PUSH2 0x242D JUMP JUMPDEST JUMPDEST SWAP1 PUSH0 MSTORE PUSH1 0x20 PUSH0 KECCAK256 SWAP1 PUSH1 0xC MUL ADD DUP1 PUSH1 0x40 MLOAD DUP1 PUSH2 0x180 ADD PUSH1 0x40 MSTORE SWAP1 DUP2 PUSH0 DUP3 ADD SLOAD DUP2 MSTORE PUSH1 0x20 ADD PUSH1 0x1 DUP3 ADD PUSH0 SWAP1 SLOAD SWAP1 PUSH2 0x100 EXP SWAP1 DIV PUSH20 0xFFFFFFFFFFFFFFFFFFFFFFFFFFFFFFFFFFFFFFFF AND PUSH20 0xFFFFFFFFFFFFFFFFFFFFFFFFFFFFFFFFFFFFFFFF AND PUSH20 0xFFFFFFFFFFFFFFFFFFFFFFFFFFFFFFFFFFFFFFFF AND DUP2 MSTORE PUSH1 0x20 ADD PUSH1 0x2 DUP3 ADD DUP1 SLOAD PUSH2 0xCDB SWAP1 PUSH2 0x2487 JUMP JUMPDEST DUP1 PUSH1 0x1F ADD PUSH1 0x20 DUP1 SWAP2 DIV MUL PUSH1 0x20 ADD PUSH1 0x40 MLOAD SWAP1 DUP2 ADD PUSH1 0x40 MSTORE DUP1 SWAP3 SWAP2 SWAP1 DUP2 DUP2 MSTORE PUSH1 0x20 ADD DUP3 DUP1 SLOAD PUSH2 0xD07 SWAP1 PUSH2 0x2487 JUMP JUMPDEST DUP1 ISZERO PUSH2 0xD52 JUMPI DUP1 PUSH1 0x1F LT PUSH2 0xD29 JUMPI PUSH2 0x100 DUP1 DUP4 SLOAD DIV MUL DUP4 MSTORE SWAP2 PUSH1 0x20 ADD SWAP2 PUSH2 0xD52 JUMP JUMPDEST DUP3 ADD SWAP2 SWAP1 PUSH0 MSTORE PUSH1 0x20 PUSH0 KECCAK256 SWAP1 JUMPDEST DUP2 SLOAD DUP2 MSTORE SWAP1 PUSH1 0x1 ADD SWAP1 PUSH1 0x20 ADD DUP1 DUP4 GT PUSH2 0xD35 JUMPI DUP3 SWAP1 SUB PUSH1 0x1F AND DUP3 ADD SWAP2 JUMPDEST POP POP POP POP POP DUP2 MSTORE PUSH1 0x20 ADD PUSH1 0x3 DUP3 ADD DUP1 SLOAD PUSH2 0xD6B SWAP1 PUSH2 0x2487 JUMP JUMPDEST DUP1 PUSH1 0x1F ADD PUSH1 0x20 DUP1 SWAP2 DIV MUL PUSH1 0x20 ADD PUSH1 0x40 MLOAD SWAP1 DUP2 ADD PUSH1 0x40 MSTORE DUP1 SWAP3 SWAP2 SWAP1 DUP2 DUP2 MSTORE PUSH1 0x20 ADD DUP3 DUP1 SLOAD PUSH2 0xD97 SWAP1 PUSH2 0x2487 JUMP JUMPDEST DUP1 ISZERO PUSH2 0xDE2 JUMPI DUP1 PUSH1 0x1F LT PUSH2 0xDB9 JUMPI PUSH2 0x100 DUP1 DUP4 SLOAD DIV MUL DUP4 MSTORE SWAP2 PUSH1 0x20 ADD SWAP2 PUSH2 0xDE2 JUMP JUMPDEST DUP3 ADD SWAP2 SWAP1 PUSH0 MSTORE PUSH1 0x20 PUSH0 KECCAK256 SWAP1 JUMPDEST DUP2 SLOAD DUP2 MSTORE SWAP1 PUSH1 0x1 ADD SWAP1 PUSH1 0x20 ADD DUP1 DUP4 GT PUSH2 0xDC5 JUMPI DUP3 SWAP1 SUB PUSH1 0x1F AND DUP3 ADD SWAP2 JUMPDEST POP POP POP POP POP DUP2 MSTORE PUSH1 0x20 ADD PUSH1 0x4 DUP3 ADD SLOAD DUP2 MSTORE PUSH1 0x20 ADD PUSH1 0x5 DUP3 ADD SLOAD DUP2 MSTORE PUSH1 0x20 ADD PUSH1 0x6 DUP3 ADD SLOAD DUP2 MSTORE PUSH1 0x20 ADD PUSH1 0x7 DUP3 ADD SLOAD DUP2 MSTORE PUSH1 0x20 ADD PUSH1 0x8 DUP3 ADD SLOAD DUP2 MSTORE PUSH1 0x20 ADD PUSH1 0x9 DUP3 ADD PUSH0 SWAP1 SLOAD SWAP1 PUSH2 0x100 EXP SWAP1 DIV PUSH1 0xFF AND PUSH1 0x2 DUP2 GT ISZERO PUSH2 0xE41 JUMPI PUSH2 0xE40 PUSH2 0x1D13 JUMP JUMPDEST JUMPDEST PUSH1 0x2 DUP2 GT ISZERO PUSH2 0xE53 JUMPI PUSH2 0xE52 PUSH2 0x1D13 JUMP JUMPDEST JUMPDEST DUP2 MSTORE PUSH1 0x20 ADD PUSH1 0xA DUP3 ADD SLOAD DUP2 MSTORE PUSH1 0x20 ADD PUSH1 0xB DUP3 ADD SLOAD DUP2 MSTORE POP POP SWAP1 POP SWAP3 POP SWAP3 POP POP JUMPDEST SWAP2 POP SWAP2 JUMP JUMPDEST PUSH0 DUP1 SLOAD SWAP1 PUSH2 0x100 EXP SWAP1 DIV PUSH20 0xFFFFFFFFFFFFFFFFFFFFFFFFFFFFFFFFFFFFFFFF AND DUP2 JUMP JUMPDEST PUSH0 PUSH1 0x1 DUP3 PUSH2 0xEA9 SWAP2 SWAP1 PUSH2 0x274F JUMP JUMPDEST SWAP1 POP PUSH1 0x3 SLOAD DUP3 GT ISZERO PUSH2 0xEF0 JUMPI PUSH1 0x40 MLOAD PUSH32 0x8C379A000000000000000000000000000000000000000000000000000000000 DUP2 MSTORE PUSH1 0x4 ADD PUSH2 0xEE7 SWAP1 PUSH2 0x27CC JUMP JUMPDEST PUSH1 0x40 MLOAD DUP1 SWAP2 SUB SWAP1 REVERT JUMPDEST PUSH0 PUSH1 0x2 DUP2 GT ISZERO PUSH2 0xF03 JUMPI PUSH2 0xF02 PUSH2 0x1D13 JUMP JUMPDEST JUMPDEST PUSH1 0x4 DUP3 DUP2 SLOAD DUP2 LT PUSH2 0xF17 JUMPI PUSH2 0xF16 PUSH2 0x242D JUMP JUMPDEST JUMPDEST SWAP1 PUSH0 MSTORE PUSH1 0x20 PUSH0 KECCAK256 SWAP1 PUSH1 0xC MUL ADD PUSH1 0x9 ADD PUSH0 SWAP1 SLOAD SWAP1 PUSH2 0x100 EXP SWAP1 DIV PUSH1 0xFF AND PUSH1 0x2 DUP2 GT ISZERO PUSH2 0xF45 JUMPI PUSH2 0xF44 PUSH2 0x1D13 JUMP JUMPDEST JUMPDEST EQ PUSH2 0xF85 JUMPI PUSH1 0x40 MLOAD PUSH32 0x8C379A000000000000000000000000000000000000000000000000000000000 DUP2 MSTORE PUSH1 0x4 ADD PUSH2 0xF7C SWAP1 PUSH2 0x2834 JUMP JUMPDEST PUSH1 0x40 MLOAD DUP1 SWAP2 SUB SWAP1 REVERT JUMPDEST PUSH1 0x4 DUP2 DUP2 SLOAD DUP2 LT PUSH2 0xF99 JUMPI PUSH2 0xF98 PUSH2 0x242D JUMP JUMPDEST JUMPDEST SWAP1 PUSH0 MSTORE PUSH1 0x20 PUSH0 KECCAK256 SWAP1 PUSH1 0xC MUL ADD PUSH1 0x7 ADD SLOAD CALLVALUE LT ISZERO PUSH2 0xFEB JUMPI PUSH1 0x40 MLOAD PUSH32 0x8C379A000000000000000000000000000000000000000000000000000000000 DUP2 MSTORE PUSH1 0x4 ADD PUSH2 0xFE2 SWAP1 PUSH2 0x289C JUMP JUMPDEST PUSH1 0x40 MLOAD DUP1 SWAP2 SUB SWAP1 REVERT JUMPDEST TIMESTAMP PUSH1 0x4 DUP3 DUP2 SLOAD DUP2 LT PUSH2 0x1000 JUMPI PUSH2 0xFFF PUSH2 0x242D JUMP JUMPDEST JUMPDEST SWAP1 PUSH0 MSTORE PUSH1 0x20 PUSH0 KECCAK256 SWAP1 PUSH1 0xC MUL ADD PUSH1 0x6 ADD SLOAD GT PUSH2 0x1050 JUMPI PUSH1 0x40 MLOAD PUSH32 0x8C379A000000000000000000000000000000000000000000000000000000000 DUP2 MSTORE PUSH1 0x4 ADD PUSH2 0x1047 SWAP1 PUSH2 0x2904 JUMP JUMPDEST PUSH1 0x40 MLOAD DUP1 SWAP2 SUB SWAP1 REVERT JUMPDEST PUSH0 CALLVALUE SWAP1 POP DUP1 PUSH1 0x4 DUP4 DUP2 SLOAD DUP2 LT PUSH2 0x1069 JUMPI PUSH2 0x1068 PUSH2 0x242D JUMP JUMPDEST JUMPDEST SWAP1 PUSH0 MSTORE PUSH1 0x20 PUSH0 KECCAK256 SWAP1 PUSH1 0xC MUL ADD PUSH1 0x5 ADD PUSH0 DUP3 DUP3 SLOAD PUSH2 0x1086 SWAP2 SWAP1 PUSH2 0x227B JUMP JUMPDEST SWAP3 POP POP DUP2 SWAP1 SSTORE POP PUSH2 0x1095 PUSH2 0x174C JUMP JUMPDEST CALLER DUP2 PUSH0 ADD SWAP1 PUSH20 0xFFFFFFFFFFFFFFFFFFFFFFFFFFFFFFFFFFFFFFFF AND SWAP1 DUP2 PUSH20 0xFFFFFFFFFFFFFFFFFFFFFFFFFFFFFFFFFFFFFFFF AND DUP2 MSTORE POP POP DUP2 DUP2 PUSH1 0x20 ADD DUP2 DUP2 MSTORE POP POP PUSH1 0x2 PUSH0 DUP5 DUP2 MSTORE PUSH1 0x20 ADD SWAP1 DUP2 MSTORE PUSH1 0x20 ADD PUSH0 KECCAK256 DUP2 SWAP1 DUP1 PUSH1 0x1 DUP2 SLOAD ADD DUP1 DUP3 SSTORE DUP1 SWAP2 POP POP PUSH1 0x1 SWAP1 SUB SWAP1 PUSH0 MSTORE PUSH1 0x20 PUSH0 KECCAK256 SWAP1 PUSH1 0x2 MUL ADD PUSH0 SWAP1 SWAP2 SWAP1 SWAP2 SWAP1 SWAP2 POP PUSH0 DUP3 ADD MLOAD DUP2 PUSH0 ADD PUSH0 PUSH2 0x100 EXP DUP2 SLOAD DUP2 PUSH20 0xFFFFFFFFFFFFFFFFFFFFFFFFFFFFFFFFFFFFFFFF MUL NOT AND SWAP1 DUP4 PUSH20 0xFFFFFFFFFFFFFFFFFFFFFFFFFFFFFFFFFFFFFFFF AND MUL OR SWAP1 SSTORE POP PUSH1 0x20 DUP3 ADD MLOAD DUP2 PUSH1 0x1 ADD SSTORE POP POP PUSH32 0x76F286EE1C29BC120F5F567B8A9DDBA0F5CB807FFDE3A1A58DA0EBDAC99374F9 DUP5 CALLER CALLVALUE TIMESTAMP PUSH1 0x40 MLOAD PUSH2 0x1193 SWAP5 SWAP4 SWAP3 SWAP2 SWAP1 PUSH2 0x2922 JUMP JUMPDEST PUSH1 0x40 MLOAD DUP1 SWAP2 SUB SWAP1 LOG1 POP POP POP POP JUMP JUMPDEST PUSH0 PUSH1 0x1 DUP3 PUSH2 0x11AF SWAP2 SWAP1 PUSH2 0x274F JUMP JUMPDEST SWAP1 POP PUSH1 0x3 SLOAD DUP3 GT ISZERO PUSH2 0x11F6 JUMPI PUSH1 0x40 MLOAD PUSH32 0x8C379A000000000000000000000000000000000000000000000000000000000 DUP2 MSTORE PUSH1 0x4 ADD PUSH2 0x11ED SWAP1 PUSH2 0x27CC JUMP JUMPDEST PUSH1 0x40 MLOAD DUP1 SWAP2 SUB SWAP1 REVERT JUMPDEST PUSH0 PUSH1 0x2 DUP2 GT ISZERO PUSH2 0x1209 JUMPI PUSH2 0x1208 PUSH2 0x1D13 JUMP JUMPDEST JUMPDEST PUSH1 0x4 DUP3 DUP2 SLOAD DUP2 LT PUSH2 0x121D JUMPI PUSH2 0x121C PUSH2 0x242D JUMP JUMPDEST JUMPDEST SWAP1 PUSH0 MSTORE PUSH1 0x20 PUSH0 KECCAK256 SWAP1 PUSH1 0xC MUL ADD PUSH1 0x9 ADD PUSH0 SWAP1 SLOAD SWAP1 PUSH2 0x100 EXP SWAP1 DIV PUSH1 0xFF AND PUSH1 0x2 DUP2 GT ISZERO PUSH2 0x124B JUMPI PUSH2 0x124A PUSH2 0x1D13 JUMP JUMPDEST JUMPDEST EQ PUSH2 0x128B JUMPI PUSH1 0x40 MLOAD PUSH32 0x8C379A000000000000000000000000000000000000000000000000000000000 DUP2 MSTORE PUSH1 0x4 ADD PUSH2 0x1282 SWAP1 PUSH2 0x2834 JUMP JUMPDEST PUSH1 0x40 MLOAD DUP1 SWAP2 SUB SWAP1 REVERT JUMPDEST CALLER PUSH20 0xFFFFFFFFFFFFFFFFFFFFFFFFFFFFFFFFFFFFFFFF AND PUSH1 0x4 DUP3 DUP2 SLOAD DUP2 LT PUSH2 0x12B6 JUMPI PUSH2 0x12B5 PUSH2 0x242D JUMP JUMPDEST JUMPDEST SWAP1 PUSH0 MSTORE PUSH1 0x20 PUSH0 KECCAK256 SWAP1 PUSH1 0xC MUL ADD PUSH1 0x1 ADD PUSH0 SWAP1 SLOAD SWAP1 PUSH2 0x100 EXP SWAP1 DIV PUSH20 0xFFFFFFFFFFFFFFFFFFFFFFFFFFFFFFFFFFFFFFFF AND PUSH20 0xFFFFFFFFFFFFFFFFFFFFFFFFFFFFFFFFFFFFFFFF AND EQ PUSH2 0x133B JUMPI PUSH1 0x40 MLOAD PUSH32 0x8C379A000000000000000000000000000000000000000000000000000000000 DUP2 MSTORE PUSH1 0x4 ADD PUSH2 0x1332 SWAP1 PUSH2 0x29AF JUMP JUMPDEST PUSH1 0x40 MLOAD DUP1 SWAP2 SUB SWAP1 REVERT JUMPDEST PUSH1 0x4 DUP2 DUP2 SLOAD DUP2 LT PUSH2 0x134F JUMPI PUSH2 0x134E PUSH2 0x242D JUMP JUMPDEST JUMPDEST SWAP1 PUSH0 MSTORE PUSH1 0x20 PUSH0 KECCAK256 SWAP1 PUSH1 0xC MUL ADD PUSH1 0x4 ADD SLOAD PUSH1 0x4 DUP3 DUP2 SLOAD DUP2 LT PUSH2 0x1373 JUMPI PUSH2 0x1372 PUSH2 0x242D JUMP JUMPDEST JUMPDEST SWAP1 PUSH0 MSTORE PUSH1 0x20 PUSH0 KECCAK256 SWAP1 PUSH1 0xC MUL ADD PUSH1 0x5 ADD SLOAD LT PUSH2 0x14AE JUMPI PUSH0 PUSH1 0x4 DUP3 DUP2 SLOAD DUP2 LT PUSH2 0x139D JUMPI PUSH2 0x139C PUSH2 0x242D JUMP JUMPDEST JUMPDEST SWAP1 PUSH0 MSTORE PUSH1 0x20 PUSH0 KECCAK256 SWAP1 PUSH1 0xC MUL ADD PUSH1 0x5 ADD SLOAD SWAP1 POP PUSH1 0x4 DUP3 DUP2 SLOAD DUP2 LT PUSH2 0x13C3 JUMPI PUSH2 0x13C2 PUSH2 0x242D JUMP JUMPDEST JUMPDEST SWAP1 PUSH0 MSTORE PUSH1 0x20 PUSH0 KECCAK256 SWAP1 PUSH1 0xC MUL ADD PUSH1 0x1 ADD PUSH0 SWAP1 SLOAD SWAP1 PUSH2 0x100 EXP SWAP1 DIV PUSH20 0xFFFFFFFFFFFFFFFFFFFFFFFFFFFFFFFFFFFFFFFF AND PUSH20 0xFFFFFFFFFFFFFFFFFFFFFFFFFFFFFFFFFFFFFFFF AND PUSH2 0x8FC DUP3 SWAP1 DUP2 ISZERO MUL SWAP1 PUSH1 0x40 MLOAD PUSH0 PUSH1 0x40 MLOAD DUP1 DUP4 SUB DUP2 DUP6 DUP9 DUP9 CALL SWAP4 POP POP POP POP ISZERO DUP1 ISZERO PUSH2 0x1434 JUMPI RETURNDATASIZE PUSH0 DUP1 RETURNDATACOPY RETURNDATASIZE PUSH0 REVERT JUMPDEST POP TIMESTAMP PUSH1 0x4 DUP4 DUP2 SLOAD DUP2 LT PUSH2 0x144A JUMPI PUSH2 0x1449 PUSH2 0x242D JUMP JUMPDEST JUMPDEST SWAP1 PUSH0 MSTORE PUSH1 0x20 PUSH0 KECCAK256 SWAP1 PUSH1 0xC MUL ADD PUSH1 0xA ADD DUP2 SWAP1 SSTORE POP PUSH1 0x1 PUSH1 0x4 DUP4 DUP2 SLOAD DUP2 LT PUSH2 0x1473 JUMPI PUSH2 0x1472 PUSH2 0x242D JUMP JUMPDEST JUMPDEST SWAP1 PUSH0 MSTORE PUSH1 0x20 PUSH0 KECCAK256 SWAP1 PUSH1 0xC MUL ADD PUSH1 0x9 ADD PUSH0 PUSH2 0x100 EXP DUP2 SLOAD DUP2 PUSH1 0xFF MUL NOT AND SWAP1 DUP4 PUSH1 0x2 DUP2 GT ISZERO PUSH2 0x14A3 JUMPI PUSH2 0x14A2 PUSH2 0x1D13 JUMP JUMPDEST JUMPDEST MUL OR SWAP1 SSTORE POP POP PUSH2 0x1621 JUMP JUMPDEST TIMESTAMP PUSH1 0x4 DUP3 DUP2 SLOAD DUP2 LT PUSH2 0x14C3 JUMPI PUSH2 0x14C2 PUSH2 0x242D JUMP JUMPDEST JUMPDEST SWAP1 PUSH0 MSTORE PUSH1 0x20 PUSH0 KECCAK256 SWAP1 PUSH1 0xC MUL ADD PUSH1 0x6 ADD SLOAD GT PUSH2 0x1620 JUMPI PUSH0 JUMPDEST PUSH1 0x2 PUSH0 DUP4 DUP2 MSTORE PUSH1 0x20 ADD SWAP1 DUP2 MSTORE PUSH1 0x20 ADD PUSH0 KECCAK256 DUP1 SLOAD SWAP1 POP DUP2 LT ISZERO PUSH2 0x15D3 JUMPI PUSH0 PUSH1 0x2 PUSH0 DUP5 DUP2 MSTORE PUSH1 0x20 ADD SWAP1 DUP2 MSTORE PUSH1 0x20 ADD PUSH0 KECCAK256 DUP3 DUP2 SLOAD DUP2 LT PUSH2 0x151A JUMPI PUSH2 0x1519 PUSH2 0x242D JUMP JUMPDEST JUMPDEST SWAP1 PUSH0 MSTORE PUSH1 0x20 PUSH0 KECCAK256 SWAP1 PUSH1 0x2 MUL ADD PUSH0 ADD PUSH0 SWAP1 SLOAD SWAP1 PUSH2 0x100 EXP SWAP1 DIV PUSH20 0xFFFFFFFFFFFFFFFFFFFFFFFFFFFFFFFFFFFFFFFF AND SWAP1 POP PUSH0 PUSH1 0x2 PUSH0 DUP6 DUP2 MSTORE PUSH1 0x20 ADD SWAP1 DUP2 MSTORE PUSH1 0x20 ADD PUSH0 KECCAK256 DUP4 DUP2 SLOAD DUP2 LT PUSH2 0x156E JUMPI PUSH2 0x156D PUSH2 0x242D JUMP JUMPDEST JUMPDEST SWAP1 PUSH0 MSTORE PUSH1 0x20 PUSH0 KECCAK256 SWAP1 PUSH1 0x2 MUL ADD PUSH1 0x1 ADD SLOAD SWAP1 POP DUP2 PUSH20 0xFFFFFFFFFFFFFFFFFFFFFFFFFFFFFFFFFFFFFFFF AND PUSH2 0x8FC DUP3 SWAP1 DUP2 ISZERO MUL SWAP1 PUSH1 0x40 MLOAD PUSH0 PUSH1 0x40 MLOAD DUP1 DUP4 SUB DUP2 DUP6 DUP9 DUP9 CALL SWAP4 POP POP POP POP ISZERO DUP1 ISZERO PUSH2 0x15C3 JUMPI RETURNDATASIZE PUSH0 DUP1 RETURNDATACOPY RETURNDATASIZE PUSH0 REVERT JUMPDEST POP POP POP DUP1 DUP1 PUSH1 0x1 ADD SWAP2 POP POP PUSH2 0x14DA JUMP JUMPDEST POP PUSH1 0x2 PUSH1 0x4 DUP3 DUP2 SLOAD DUP2 LT PUSH2 0x15EA JUMPI PUSH2 0x15E9 PUSH2 0x242D JUMP JUMPDEST JUMPDEST SWAP1 PUSH0 MSTORE PUSH1 0x20 PUSH0 KECCAK256 SWAP1 PUSH1 0xC MUL ADD PUSH1 0x9 ADD PUSH0 PUSH2 0x100 EXP DUP2 SLOAD DUP2 PUSH1 0xFF MUL NOT AND SWAP1 DUP4 PUSH1 0x2 DUP2 GT ISZERO PUSH2 0x161A JUMPI PUSH2 0x1619 PUSH2 0x1D13 JUMP JUMPDEST JUMPDEST MUL OR SWAP1 SSTORE POP JUMPDEST JUMPDEST POP POP JUMP JUMPDEST PUSH0 PUSH1 0x1 PUSH0 SWAP1 SLOAD SWAP1 PUSH2 0x100 EXP SWAP1 DIV PUSH20 0xFFFFFFFFFFFFFFFFFFFFFFFFFFFFFFFFFFFFFFFF AND PUSH20 0xFFFFFFFFFFFFFFFFFFFFFFFFFFFFFFFFFFFFFFFF AND PUSH4 0x70A08231 DUP4 PUSH1 0x40 MLOAD DUP3 PUSH4 0xFFFFFFFF AND PUSH1 0xE0 SHL DUP2 MSTORE PUSH1 0x4 ADD PUSH2 0x1680 SWAP2 SWAP1 PUSH2 0x20B0 JUMP JUMPDEST PUSH1 0x20 PUSH1 0x40 MLOAD DUP1 DUP4 SUB DUP2 DUP7 GAS STATICCALL ISZERO DUP1 ISZERO PUSH2 0x169B JUMPI RETURNDATASIZE PUSH0 DUP1 RETURNDATACOPY RETURNDATASIZE PUSH0 REVERT JUMPDEST POP POP POP POP PUSH1 0x40 MLOAD RETURNDATASIZE PUSH1 0x1F NOT PUSH1 0x1F DUP3 ADD AND DUP3 ADD DUP1 PUSH1 0x40 MSTORE POP DUP2 ADD SWAP1 PUSH2 0x16BF SWAP2 SWAP1 PUSH2 0x21AB JUMP JUMPDEST SWAP1 POP SWAP2 SWAP1 POP JUMP JUMPDEST PUSH0 CALLER SWAP1 POP SWAP1 JUMP JUMPDEST PUSH1 0x40 MLOAD DUP1 PUSH2 0x180 ADD PUSH1 0x40 MSTORE DUP1 PUSH0 DUP2 MSTORE PUSH1 0x20 ADD PUSH0 PUSH20 0xFFFFFFFFFFFFFFFFFFFFFFFFFFFFFFFFFFFFFFFF AND DUP2 MSTORE PUSH1 0x20 ADD PUSH1 0x60 DUP2 MSTORE PUSH1 0x20 ADD PUSH1 0x60 DUP2 MSTORE PUSH1 0x20 ADD PUSH0 DUP2 MSTORE PUSH1 0x20 ADD PUSH0 DUP2 MSTORE PUSH1 0x20 ADD PUSH0 DUP2 MSTORE PUSH1 0x20 ADD PUSH0 DUP2 MSTORE PUSH1 0x20 ADD PUSH0 DUP2 MSTORE PUSH1 0x20 ADD PUSH0 PUSH1 0x2 DUP2 GT ISZERO PUSH2 0x173A JUMPI PUSH2 0x1739 PUSH2 0x1D13 JUMP JUMPDEST JUMPDEST DUP2 MSTORE PUSH1 0x20 ADD PUSH0 DUP2 MSTORE PUSH1 0x20 ADD PUSH0 DUP2 MSTORE POP SWAP1 JUMP JUMPDEST PUSH1 0x40 MLOAD DUP1 PUSH1 0x40 ADD PUSH1 0x40 MSTORE DUP1 PUSH0 PUSH20 0xFFFFFFFFFFFFFFFFFFFFFFFFFFFFFFFFFFFFFFFF AND DUP2 MSTORE PUSH1 0x20 ADD PUSH0 DUP2 MSTORE POP SWAP1 JUMP JUMPDEST PUSH0 PUSH1 0x40 MLOAD SWAP1 POP SWAP1 JUMP JUMPDEST PUSH0 DUP1 REVERT JUMPDEST PUSH0 DUP1 REVERT JUMPDEST PUSH0 PUSH20 0xFFFFFFFFFFFFFFFFFFFFFFFFFFFFFFFFFFFFFFFF DUP3 AND SWAP1 POP SWAP2 SWAP1 POP JUMP JUMPDEST PUSH0 PUSH2 0x17B4 DUP3 PUSH2 0x178B JUMP JUMPDEST SWAP1 POP SWAP2 SWAP1 POP JUMP JUMPDEST PUSH2 0x17C4 DUP2 PUSH2 0x17AA JUMP JUMPDEST DUP2 EQ PUSH2 0x17CE JUMPI PUSH0 DUP1 REVERT JUMPDEST POP JUMP JUMPDEST PUSH0 DUP2 CALLDATALOAD SWAP1 POP PUSH2 0x17DF DUP2 PUSH2 0x17BB JUMP JUMPDEST SWAP3 SWAP2 POP POP JUMP JUMPDEST PUSH0 DUP2 SWAP1 POP SWAP2 SWAP1 POP JUMP JUMPDEST PUSH2 0x17F7 DUP2 PUSH2 0x17E5 JUMP JUMPDEST DUP2 EQ PUSH2 0x1801 JUMPI PUSH0 DUP1 REVERT JUMPDEST POP JUMP JUMPDEST PUSH0 DUP2 CALLDATALOAD SWAP1 POP PUSH2 0x1812 DUP2 PUSH2 0x17EE JUMP JUMPDEST SWAP3 SWAP2 POP POP JUMP JUMPDEST PUSH0 DUP1 PUSH1 0x40 DUP4 DUP6 SUB SLT ISZERO PUSH2 0x182E JUMPI PUSH2 0x182D PUSH2 0x1783 JUMP JUMPDEST JUMPDEST PUSH0 PUSH2 0x183B DUP6 DUP3 DUP7 ADD PUSH2 0x17D1 JUMP JUMPDEST SWAP3 POP POP PUSH1 0x20 PUSH2 0x184C DUP6 DUP3 DUP7 ADD PUSH2 0x1804 JUMP JUMPDEST SWAP2 POP POP SWAP3 POP SWAP3 SWAP1 POP JUMP JUMPDEST PUSH0 DUP2 ISZERO ISZERO SWAP1 POP SWAP2 SWAP1 POP JUMP JUMPDEST PUSH2 0x186A DUP2 PUSH2 0x1856 JUMP JUMPDEST DUP3 MSTORE POP POP JUMP JUMPDEST PUSH0 PUSH1 0x20 DUP3 ADD SWAP1 POP PUSH2 0x1883 PUSH0 DUP4 ADD DUP5 PUSH2 0x1861 JUMP JUMPDEST SWAP3 SWAP2 POP POP JUMP JUMPDEST PUSH0 DUP1 PUSH1 0x40 DUP4 DUP6 SUB SLT ISZERO PUSH2 0x189F JUMPI PUSH2 0x189E PUSH2 0x1783 JUMP JUMPDEST JUMPDEST PUSH0 PUSH2 0x18AC DUP6 DUP3 DUP7 ADD PUSH2 0x17D1 JUMP JUMPDEST SWAP3 POP POP PUSH1 0x20 PUSH2 0x18BD DUP6 DUP3 DUP7 ADD PUSH2 0x17D1 JUMP JUMPDEST SWAP2 POP POP SWAP3 POP SWAP3 SWAP1 POP JUMP JUMPDEST PUSH2 0x18D0 DUP2 PUSH2 0x17E5 JUMP JUMPDEST DUP3 MSTORE POP POP JUMP JUMPDEST PUSH0 PUSH1 0x20 DUP3 ADD SWAP1 POP PUSH2 0x18E9 PUSH0 DUP4 ADD DUP5 PUSH2 0x18C7 JUMP JUMPDEST SWAP3 SWAP2 POP POP JUMP JUMPDEST PUSH0 DUP2 SWAP1 POP SWAP2 SWAP1 POP JUMP JUMPDEST PUSH0 PUSH2 0x1912 PUSH2 0x190D PUSH2 0x1908 DUP5 PUSH2 0x178B JUMP JUMPDEST PUSH2 0x18EF JUMP JUMPDEST PUSH2 0x178B JUMP JUMPDEST SWAP1 POP SWAP2 SWAP1 POP JUMP JUMPDEST PUSH0 PUSH2 0x1923 DUP3 PUSH2 0x18F8 JUMP JUMPDEST SWAP1 POP SWAP2 SWAP1 POP JUMP JUMPDEST PUSH0 PUSH2 0x1934 DUP3 PUSH2 0x1919 JUMP JUMPDEST SWAP1 POP SWAP2 SWAP1 POP JUMP JUMPDEST PUSH2 0x1944 DUP2 PUSH2 0x192A JUMP JUMPDEST DUP3 MSTORE POP POP JUMP JUMPDEST PUSH0 PUSH1 0x20 DUP3 ADD SWAP1 POP PUSH2 0x195D PUSH0 DUP4 ADD DUP5 PUSH2 0x193B JUMP JUMPDEST SWAP3 SWAP2 POP POP JUMP JUMPDEST PUSH0 DUP1 REVERT JUMPDEST PUSH0 PUSH1 0x1F NOT PUSH1 0x1F DUP4 ADD AND SWAP1 POP SWAP2 SWAP1 POP JUMP JUMPDEST PUSH32 0x4E487B7100000000000000000000000000000000000000000000000000000000 PUSH0 MSTORE PUSH1 0x41 PUSH1 0x4 MSTORE PUSH1 0x24 PUSH0 REVERT JUMPDEST PUSH2 0x19AD DUP3 PUSH2 0x1967 JUMP JUMPDEST DUP2 ADD DUP2 DUP2 LT PUSH8 0xFFFFFFFFFFFFFFFF DUP3 GT OR ISZERO PUSH2 0x19CC JUMPI PUSH2 0x19CB PUSH2 0x1977 JUMP JUMPDEST JUMPDEST DUP1 PUSH1 0x40 MSTORE POP POP POP JUMP JUMPDEST PUSH0 PUSH2 0x19DE PUSH2 0x177A JUMP JUMPDEST SWAP1 POP PUSH2 0x19EA DUP3 DUP3 PUSH2 0x19A4 JUMP JUMPDEST SWAP2 SWAP1 POP JUMP JUMPDEST PUSH0 PUSH8 0xFFFFFFFFFFFFFFFF DUP3 GT ISZERO PUSH2 0x1A09 JUMPI PUSH2 0x1A08 PUSH2 0x1977 JUMP JUMPDEST JUMPDEST PUSH1 0x20 DUP3 MUL SWAP1 POP SWAP2 SWAP1 POP JUMP JUMPDEST PUSH0 DUP1 REVERT JUMPDEST PUSH0 DUP1 REVERT JUMPDEST PUSH0 PUSH8 0xFFFFFFFFFFFFFFFF DUP3 GT ISZERO PUSH2 0x1A36 JUMPI PUSH2 0x1A35 PUSH2 0x1977 JUMP JUMPDEST JUMPDEST PUSH2 0x1A3F DUP3 PUSH2 0x1967 JUMP JUMPDEST SWAP1 POP PUSH1 0x20 DUP2 ADD SWAP1 POP SWAP2 SWAP1 POP JUMP JUMPDEST DUP3 DUP2 DUP4 CALLDATACOPY PUSH0 DUP4 DUP4 ADD MSTORE POP POP POP JUMP JUMPDEST PUSH0 PUSH2 0x1A6C PUSH2 0x1A67 DUP5 PUSH2 0x1A1C JUMP JUMPDEST PUSH2 0x19D5 JUMP JUMPDEST SWAP1 POP DUP3 DUP2 MSTORE PUSH1 0x20 DUP2 ADD DUP5 DUP5 DUP5 ADD GT ISZERO PUSH2 0x1A88 JUMPI PUSH2 0x1A87 PUSH2 0x1A18 JUMP JUMPDEST JUMPDEST PUSH2 0x1A93 DUP5 DUP3 DUP6 PUSH2 0x1A4C JUMP JUMPDEST POP SWAP4 SWAP3 POP POP POP JUMP JUMPDEST PUSH0 DUP3 PUSH1 0x1F DUP4 ADD SLT PUSH2 0x1AAF JUMPI PUSH2 0x1AAE PUSH2 0x1963 JUMP JUMPDEST JUMPDEST DUP2 CALLDATALOAD PUSH2 0x1ABF DUP5 DUP3 PUSH1 0x20 DUP7 ADD PUSH2 0x1A5A JUMP JUMPDEST SWAP2 POP POP SWAP3 SWAP2 POP POP JUMP JUMPDEST PUSH0 PUSH2 0x1ADA PUSH2 0x1AD5 DUP5 PUSH2 0x19EF JUMP JUMPDEST PUSH2 0x19D5 JUMP JUMPDEST SWAP1 POP DUP1 PUSH1 0x20 DUP5 MUL DUP4 ADD DUP6 DUP2 GT ISZERO PUSH2 0x1AF4 JUMPI PUSH2 0x1AF3 PUSH2 0x1A14 JUMP JUMPDEST JUMPDEST DUP4 JUMPDEST DUP2 DUP2 LT ISZERO PUSH2 0x1B3B JUMPI DUP1 CALLDATALOAD PUSH8 0xFFFFFFFFFFFFFFFF DUP2 GT ISZERO PUSH2 0x1B19 JUMPI PUSH2 0x1B18 PUSH2 0x1963 JUMP JUMPDEST JUMPDEST DUP1 DUP7 ADD PUSH2 0x1B26 DUP10 DUP3 PUSH2 0x1A9B JUMP JUMPDEST DUP6 MSTORE PUSH1 0x20 DUP6 ADD SWAP5 POP POP POP PUSH1 0x20 DUP2 ADD SWAP1 POP PUSH2 0x1AF6 JUMP JUMPDEST POP POP POP SWAP4 SWAP3 POP POP POP JUMP JUMPDEST PUSH0 DUP3 PUSH1 0x1F DUP4 ADD SLT PUSH2 0x1B59 JUMPI PUSH2 0x1B58 PUSH2 0x1963 JUMP JUMPDEST JUMPDEST PUSH1 0x2 PUSH2 0x1B66 DUP5 DUP3 DUP6 PUSH2 0x1AC8 JUMP JUMPDEST SWAP2 POP POP SWAP3 SWAP2 POP POP JUMP JUMPDEST PUSH0 DUP1 PUSH0 DUP1 PUSH0 PUSH1 0xA0 DUP7 DUP9 SUB SLT ISZERO PUSH2 0x1B88 JUMPI PUSH2 0x1B87 PUSH2 0x1783 JUMP JUMPDEST JUMPDEST PUSH0 DUP7 ADD CALLDATALOAD PUSH8 0xFFFFFFFFFFFFFFFF DUP2 GT ISZERO PUSH2 0x1BA5 JUMPI PUSH2 0x1BA4 PUSH2 0x1787 JUMP JUMPDEST JUMPDEST PUSH2 0x1BB1 DUP9 DUP3 DUP10 ADD PUSH2 0x1B45 JUMP JUMPDEST SWAP6 POP POP PUSH1 0x20 PUSH2 0x1BC2 DUP9 DUP3 DUP10 ADD PUSH2 0x1804 JUMP JUMPDEST SWAP5 POP POP PUSH1 0x40 PUSH2 0x1BD3 DUP9 DUP3 DUP10 ADD PUSH2 0x1804 JUMP JUMPDEST SWAP4 POP POP PUSH1 0x60 PUSH2 0x1BE4 DUP9 DUP3 DUP10 ADD PUSH2 0x1804 JUMP JUMPDEST SWAP3 POP POP PUSH1 0x80 PUSH2 0x1BF5 DUP9 DUP3 DUP10 ADD PUSH2 0x1804 JUMP JUMPDEST SWAP2 POP POP SWAP3 SWAP6 POP SWAP3 SWAP6 SWAP1 SWAP4 POP JUMP JUMPDEST PUSH0 DUP1 PUSH0 PUSH1 0x60 DUP5 DUP7 SUB SLT ISZERO PUSH2 0x1C19 JUMPI PUSH2 0x1C18 PUSH2 0x1783 JUMP JUMPDEST JUMPDEST PUSH0 PUSH2 0x1C26 DUP7 DUP3 DUP8 ADD PUSH2 0x17D1 JUMP JUMPDEST SWAP4 POP POP PUSH1 0x20 PUSH2 0x1C37 DUP7 DUP3 DUP8 ADD PUSH2 0x17D1 JUMP JUMPDEST SWAP3 POP POP PUSH1 0x40 PUSH2 0x1C48 DUP7 DUP3 DUP8 ADD PUSH2 0x1804 JUMP JUMPDEST SWAP2 POP POP SWAP3 POP SWAP3 POP SWAP3 JUMP JUMPDEST PUSH0 DUP2 MLOAD SWAP1 POP SWAP2 SWAP1 POP JUMP JUMPDEST PUSH0 DUP3 DUP3 MSTORE PUSH1 0x20 DUP3 ADD SWAP1 POP SWAP3 SWAP2 POP POP JUMP JUMPDEST PUSH0 DUP2 SWAP1 POP PUSH1 0x20 DUP3 ADD SWAP1 POP SWAP2 SWAP1 POP JUMP JUMPDEST PUSH2 0x1C84 DUP2 PUSH2 0x17E5 JUMP JUMPDEST DUP3 MSTORE POP POP JUMP JUMPDEST PUSH2 0x1C93 DUP2 PUSH2 0x17AA JUMP JUMPDEST DUP3 MSTORE POP POP JUMP JUMPDEST PUSH0 DUP2 MLOAD SWAP1 POP SWAP2 SWAP1 POP JUMP JUMPDEST PUSH0 DUP3 DUP3 MSTORE PUSH1 0x20 DUP3 ADD SWAP1 POP SWAP3 SWAP2 POP POP JUMP JUMPDEST PUSH0 JUMPDEST DUP4 DUP2 LT ISZERO PUSH2 0x1CD0 JUMPI DUP1 DUP3 ADD MLOAD DUP2 DUP5 ADD MSTORE PUSH1 0x20 DUP2 ADD SWAP1 POP PUSH2 0x1CB5 JUMP JUMPDEST PUSH0 DUP5 DUP5 ADD MSTORE POP POP POP POP JUMP JUMPDEST PUSH0 PUSH2 0x1CE5 DUP3 PUSH2 0x1C99 JUMP JUMPDEST PUSH2 0x1CEF DUP2 DUP6 PUSH2 0x1CA3 JUMP JUMPDEST SWAP4 POP PUSH2 0x1CFF DUP2 DUP6 PUSH1 0x20 DUP7 ADD PUSH2 0x1CB3 JUMP JUMPDEST PUSH2 0x1D08 DUP2 PUSH2 0x1967 JUMP JUMPDEST DUP5 ADD SWAP2 POP POP SWAP3 SWAP2 POP POP JUMP JUMPDEST PUSH32 0x4E487B7100000000000000000000000000000000000000000000000000000000 PUSH0 MSTORE PUSH1 0x21 PUSH1 0x4 MSTORE PUSH1 0x24 PUSH0 REVERT JUMPDEST PUSH1 0x3 DUP2 LT PUSH2 0x1D51 JUMPI PUSH2 0x1D50 PUSH2 0x1D13 JUMP JUMPDEST JUMPDEST POP JUMP JUMPDEST PUSH0 DUP2 SWAP1 POP PUSH2 0x1D61 DUP3 PUSH2 0x1D40 JUMP JUMPDEST SWAP2 SWAP1 POP JUMP JUMPDEST PUSH0 PUSH2 0x1D70 DUP3 PUSH2 0x1D54 JUMP JUMPDEST SWAP1 POP SWAP2 SWAP1 POP JUMP JUMPDEST PUSH2 0x1D80 DUP2 PUSH2 0x1D66 JUMP JUMPDEST DUP3 MSTORE POP POP JUMP JUMPDEST PUSH0 PUSH2 0x180 DUP4 ADD PUSH0 DUP4 ADD MLOAD PUSH2 0x1D9C PUSH0 DUP7 ADD DUP3 PUSH2 0x1C7B JUMP JUMPDEST POP PUSH1 0x20 DUP4 ADD MLOAD PUSH2 0x1DAF PUSH1 0x20 DUP7 ADD DUP3 PUSH2 0x1C8A JUMP JUMPDEST POP PUSH1 0x40 DUP4 ADD MLOAD DUP5 DUP3 SUB PUSH1 0x40 DUP7 ADD MSTORE PUSH2 0x1DC7 DUP3 DUP3 PUSH2 0x1CDB JUMP JUMPDEST SWAP2 POP POP PUSH1 0x60 DUP4 ADD MLOAD DUP5 DUP3 SUB PUSH1 0x60 DUP7 ADD MSTORE PUSH2 0x1DE1 DUP3 DUP3 PUSH2 0x1CDB JUMP JUMPDEST SWAP2 POP POP PUSH1 0x80 DUP4 ADD MLOAD PUSH2 0x1DF6 PUSH1 0x80 DUP7 ADD DUP3 PUSH2 0x1C7B JUMP JUMPDEST POP PUSH1 0xA0 DUP4 ADD MLOAD PUSH2 0x1E09 PUSH1 0xA0 DUP7 ADD DUP3 PUSH2 0x1C7B JUMP JUMPDEST POP PUSH1 0xC0 DUP4 ADD MLOAD PUSH2 0x1E1C PUSH1 0xC0 DUP7 ADD DUP3 PUSH2 0x1C7B JUMP JUMPDEST POP PUSH1 0xE0 DUP4 ADD MLOAD PUSH2 0x1E2F PUSH1 0xE0 DUP7 ADD DUP3 PUSH2 0x1C7B JUMP JUMPDEST POP PUSH2 0x100 DUP4 ADD MLOAD PUSH2 0x1E44 PUSH2 0x100 DUP7 ADD DUP3 PUSH2 0x1C7B JUMP JUMPDEST POP PUSH2 0x120 DUP4 ADD MLOAD PUSH2 0x1E59 PUSH2 0x120 DUP7 ADD DUP3 PUSH2 0x1D77 JUMP JUMPDEST POP PUSH2 0x140 DUP4 ADD MLOAD PUSH2 0x1E6E PUSH2 0x140 DUP7 ADD DUP3 PUSH2 0x1C7B JUMP JUMPDEST POP PUSH2 0x160 DUP4 ADD MLOAD PUSH2 0x1E83 PUSH2 0x160 DUP7 ADD DUP3 PUSH2 0x1C7B JUMP JUMPDEST POP DUP1 SWAP2 POP POP SWAP3 SWAP2 POP POP JUMP JUMPDEST PUSH0 PUSH2 0x1E99 DUP4 DUP4 PUSH2 0x1D86 JUMP JUMPDEST SWAP1 POP SWAP3 SWAP2 POP POP JUMP JUMPDEST PUSH0 PUSH1 0x20 DUP3 ADD SWAP1 POP SWAP2 SWAP1 POP JUMP JUMPDEST PUSH0 PUSH2 0x1EB7 DUP3 PUSH2 0x1C52 JUMP JUMPDEST PUSH2 0x1EC1 DUP2 DUP6 PUSH2 0x1C5C JUMP JUMPDEST SWAP4 POP DUP4 PUSH1 0x20 DUP3 MUL DUP6 ADD PUSH2 0x1ED3 DUP6 PUSH2 0x1C6C JUMP JUMPDEST DUP1 PUSH0 JUMPDEST DUP6 DUP2 LT ISZERO PUSH2 0x1F0E JUMPI DUP5 DUP5 SUB DUP10 MSTORE DUP2 MLOAD PUSH2 0x1EEF DUP6 DUP3 PUSH2 0x1E8E JUMP JUMPDEST SWAP5 POP PUSH2 0x1EFA DUP4 PUSH2 0x1EA1 JUMP JUMPDEST SWAP3 POP PUSH1 0x20 DUP11 ADD SWAP10 POP POP PUSH1 0x1 DUP2 ADD SWAP1 POP PUSH2 0x1ED6 JUMP JUMPDEST POP DUP3 SWAP8 POP DUP8 SWAP6 POP POP POP POP POP POP SWAP3 SWAP2 POP POP JUMP JUMPDEST PUSH0 PUSH1 0x20 DUP3 ADD SWAP1 POP DUP2 DUP2 SUB PUSH0 DUP4 ADD MSTORE PUSH2 0x1F38 DUP2 DUP5 PUSH2 0x1EAD JUMP JUMPDEST SWAP1 POP SWAP3 SWAP2 POP POP JUMP JUMPDEST PUSH0 PUSH1 0x20 DUP3 DUP5 SUB SLT ISZERO PUSH2 0x1F55 JUMPI PUSH2 0x1F54 PUSH2 0x1783 JUMP JUMPDEST JUMPDEST PUSH0 PUSH2 0x1F62 DUP5 DUP3 DUP6 ADD PUSH2 0x1804 JUMP JUMPDEST SWAP2 POP POP SWAP3 SWAP2 POP POP JUMP JUMPDEST PUSH0 PUSH2 0x180 DUP4 ADD PUSH0 DUP4 ADD MLOAD PUSH2 0x1F81 PUSH0 DUP7 ADD DUP3 PUSH2 0x1C7B JUMP JUMPDEST POP PUSH1 0x20 DUP4 ADD MLOAD PUSH2 0x1F94 PUSH1 0x20 DUP7 ADD DUP3 PUSH2 0x1C8A JUMP JUMPDEST POP PUSH1 0x40 DUP4 ADD MLOAD DUP5 DUP3 SUB PUSH1 0x40 DUP7 ADD MSTORE PUSH2 0x1FAC DUP3 DUP3 PUSH2 0x1CDB JUMP JUMPDEST SWAP2 POP POP PUSH1 0x60 DUP4 ADD MLOAD DUP5 DUP3 SUB PUSH1 0x60 DUP7 ADD MSTORE PUSH2 0x1FC6 DUP3 DUP3 PUSH2 0x1CDB JUMP JUMPDEST SWAP2 POP POP PUSH1 0x80 DUP4 ADD MLOAD PUSH2 0x1FDB PUSH1 0x80 DUP7 ADD DUP3 PUSH2 0x1C7B JUMP JUMPDEST POP PUSH1 0xA0 DUP4 ADD MLOAD PUSH2 0x1FEE PUSH1 0xA0 DUP7 ADD DUP3 PUSH2 0x1C7B JUMP JUMPDEST POP PUSH1 0xC0 DUP4 ADD MLOAD PUSH2 0x2001 PUSH1 0xC0 DUP7 ADD DUP3 PUSH2 0x1C7B JUMP JUMPDEST POP PUSH1 0xE0 DUP4 ADD MLOAD PUSH2 0x2014 PUSH1 0xE0 DUP7 ADD DUP3 PUSH2 0x1C7B JUMP JUMPDEST POP PUSH2 0x100 DUP4 ADD MLOAD PUSH2 0x2029 PUSH2 0x100 DUP7 ADD DUP3 PUSH2 0x1C7B JUMP JUMPDEST POP PUSH2 0x120 DUP4 ADD MLOAD PUSH2 0x203E PUSH2 0x120 DUP7 ADD DUP3 PUSH2 0x1D77 JUMP JUMPDEST POP PUSH2 0x140 DUP4 ADD MLOAD PUSH2 0x2053 PUSH2 0x140 DUP7 ADD DUP3 PUSH2 0x1C7B JUMP JUMPDEST POP PUSH2 0x160 DUP4 ADD MLOAD PUSH2 0x2068 PUSH2 0x160 DUP7 ADD DUP3 PUSH2 0x1C7B JUMP JUMPDEST POP DUP1 SWAP2 POP POP SWAP3 SWAP2 POP POP JUMP JUMPDEST PUSH0 PUSH1 0x40 DUP3 ADD SWAP1 POP PUSH2 0x2086 PUSH0 DUP4 ADD DUP6 PUSH2 0x1861 JUMP JUMPDEST DUP2 DUP2 SUB PUSH1 0x20 DUP4 ADD MSTORE PUSH2 0x2098 DUP2 DUP5 PUSH2 0x1F6B JUMP JUMPDEST SWAP1 POP SWAP4 SWAP3 POP POP POP JUMP JUMPDEST PUSH2 0x20AA DUP2 PUSH2 0x17AA JUMP JUMPDEST DUP3 MSTORE POP POP JUMP JUMPDEST PUSH0 PUSH1 0x20 DUP3 ADD SWAP1 POP PUSH2 0x20C3 PUSH0 DUP4 ADD DUP5 PUSH2 0x20A1 JUMP JUMPDEST SWAP3 SWAP2 POP POP JUMP JUMPDEST PUSH0 PUSH1 0x20 DUP3 DUP5 SUB SLT ISZERO PUSH2 0x20DE JUMPI PUSH2 0x20DD PUSH2 0x1783 JUMP JUMPDEST JUMPDEST PUSH0 PUSH2 0x20EB DUP5 DUP3 DUP6 ADD PUSH2 0x17D1 JUMP JUMPDEST SWAP2 POP POP SWAP3 SWAP2 POP POP JUMP JUMPDEST PUSH0 PUSH1 0x40 DUP3 ADD SWAP1 POP PUSH2 0x2107 PUSH0 DUP4 ADD DUP6 PUSH2 0x20A1 JUMP JUMPDEST PUSH2 0x2114 PUSH1 0x20 DUP4 ADD DUP5 PUSH2 0x18C7 JUMP JUMPDEST SWAP4 SWAP3 POP POP POP JUMP JUMPDEST PUSH2 0x2124 DUP2 PUSH2 0x1856 JUMP JUMPDEST DUP2 EQ PUSH2 0x212E JUMPI PUSH0 DUP1 REVERT JUMPDEST POP JUMP JUMPDEST PUSH0 DUP2 MLOAD SWAP1 POP PUSH2 0x213F DUP2 PUSH2 0x211B JUMP JUMPDEST SWAP3 SWAP2 POP POP JUMP JUMPDEST PUSH0 PUSH1 0x20 DUP3 DUP5 SUB SLT ISZERO PUSH2 0x215A JUMPI PUSH2 0x2159 PUSH2 0x1783 JUMP JUMPDEST JUMPDEST PUSH0 PUSH2 0x2167 DUP5 DUP3 DUP6 ADD PUSH2 0x2131 JUMP JUMPDEST SWAP2 POP POP SWAP3 SWAP2 POP POP JUMP JUMPDEST PUSH0 PUSH1 0x40 DUP3 ADD SWAP1 POP PUSH2 0x2183 PUSH0 DUP4 ADD DUP6 PUSH2 0x20A1 JUMP JUMPDEST PUSH2 0x2190 PUSH1 0x20 DUP4 ADD DUP5 PUSH2 0x20A1 JUMP JUMPDEST SWAP4 SWAP3 POP POP POP JUMP JUMPDEST PUSH0 DUP2 MLOAD SWAP1 POP PUSH2 0x21A5 DUP2 PUSH2 0x17EE JUMP JUMPDEST SWAP3 SWAP2 POP POP JUMP JUMPDEST PUSH0 PUSH1 0x20 DUP3 DUP5 SUB SLT ISZERO PUSH2 0x21C0 JUMPI PUSH2 0x21BF PUSH2 0x1783 JUMP JUMPDEST JUMPDEST PUSH0 PUSH2 0x21CD DUP5 DUP3 DUP6 ADD PUSH2 0x2197 JUMP JUMPDEST SWAP2 POP POP SWAP3 SWAP2 POP POP JUMP JUMPDEST PUSH0 DUP3 DUP3 MSTORE PUSH1 0x20 DUP3 ADD SWAP1 POP SWAP3 SWAP2 POP POP JUMP JUMPDEST PUSH32 0xE69C80E5B091E8A681E5A4A7E4BA8E3000000000000000000000000000000000 PUSH0 DUP3 ADD MSTORE POP JUMP JUMPDEST PUSH0 PUSH2 0x221A PUSH1 0x10 DUP4 PUSH2 0x21D6 JUMP JUMPDEST SWAP2 POP PUSH2 0x2225 DUP3 PUSH2 0x21E6 JUMP JUMPDEST PUSH1 0x20 DUP3 ADD SWAP1 POP SWAP2 SWAP1 POP JUMP JUMPDEST PUSH0 PUSH1 0x20 DUP3 ADD SWAP1 POP DUP2 DUP2 SUB PUSH0 DUP4 ADD MSTORE PUSH2 0x2247 DUP2 PUSH2 0x220E JUMP JUMPDEST SWAP1 POP SWAP2 SWAP1 POP JUMP JUMPDEST PUSH32 0x4E487B7100000000000000000000000000000000000000000000000000000000 PUSH0 MSTORE PUSH1 0x11 PUSH1 0x4 MSTORE PUSH1 0x24 PUSH0 REVERT JUMPDEST PUSH0 PUSH2 0x2285 DUP3 PUSH2 0x17E5 JUMP JUMPDEST SWAP2 POP PUSH2 0x2290 DUP4 PUSH2 0x17E5 JUMP JUMPDEST SWAP3 POP DUP3 DUP3 ADD SWAP1 POP DUP1 DUP3 GT ISZERO PUSH2 0x22A8 JUMPI PUSH2 0x22A7 PUSH2 0x224E JUMP JUMPDEST JUMPDEST SWAP3 SWAP2 POP POP JUMP JUMPDEST PUSH32 0xE8B685E697B6E4BA860000000000000000000000000000000000000000000000 PUSH0 DUP3 ADD MSTORE POP JUMP JUMPDEST PUSH0 PUSH2 0x22E2 PUSH1 0x9 DUP4 PUSH2 0x21D6 JUMP JUMPDEST SWAP2 POP PUSH2 0x22ED DUP3 PUSH2 0x22AE JUMP JUMPDEST PUSH1 0x20 DUP3 ADD SWAP1 POP SWAP2 SWAP1 POP JUMP JUMPDEST PUSH0 PUSH1 0x20 DUP3 ADD SWAP1 POP DUP2 DUP2 SUB PUSH0 DUP4 ADD MSTORE PUSH2 0x230F DUP2 PUSH2 0x22D6 JUMP JUMPDEST SWAP1 POP SWAP2 SWAP1 POP JUMP JUMPDEST PUSH32 0xE69C80E5B08FE98791E9A29DE8A681E5A4A7E4BA8E3000000000000000000000 PUSH0 DUP3 ADD MSTORE POP JUMP JUMPDEST PUSH0 PUSH2 0x234A PUSH1 0x16 DUP4 PUSH2 0x21D6 JUMP JUMPDEST SWAP2 POP PUSH2 0x2355 DUP3 PUSH2 0x2316 JUMP JUMPDEST PUSH1 0x20 DUP3 ADD SWAP1 POP SWAP2 SWAP1 POP JUMP JUMPDEST PUSH0 PUSH1 0x20 DUP3 ADD SWAP1 POP DUP2 DUP2 SUB PUSH0 DUP4 ADD MSTORE PUSH2 0x2377 DUP2 PUSH2 0x233E JUMP JUMPDEST SWAP1 POP SWAP2 SWAP1 POP JUMP JUMPDEST PUSH32 0x6D696E56616C756550657263656E7420697320696E76616C6964000000000000 PUSH0 DUP3 ADD MSTORE POP JUMP JUMPDEST PUSH0 PUSH2 0x23B2 PUSH1 0x1A DUP4 PUSH2 0x21D6 JUMP JUMPDEST SWAP2 POP PUSH2 0x23BD DUP3 PUSH2 0x237E JUMP JUMPDEST PUSH1 0x20 DUP3 ADD SWAP1 POP SWAP2 SWAP1 POP JUMP JUMPDEST PUSH0 PUSH1 0x20 DUP3 ADD SWAP1 POP DUP2 DUP2 SUB PUSH0 DUP4 ADD MSTORE PUSH2 0x23DF DUP2 PUSH2 0x23A6 JUMP JUMPDEST SWAP1 POP SWAP2 SWAP1 POP JUMP JUMPDEST PUSH0 PUSH2 0x23F0 DUP3 PUSH2 0x17E5 JUMP JUMPDEST SWAP2 POP PUSH32 0xFFFFFFFFFFFFFFFFFFFFFFFFFFFFFFFFFFFFFFFFFFFFFFFFFFFFFFFFFFFFFFFF DUP3 SUB PUSH2 0x2422 JUMPI PUSH2 0x2421 PUSH2 0x224E JUMP JUMPDEST JUMPDEST PUSH1 0x1 DUP3 ADD SWAP1 POP SWAP2 SWAP1 POP JUMP JUMPDEST PUSH32 0x4E487B7100000000000000000000000000000000000000000000000000000000 PUSH0 MSTORE PUSH1 0x32 PUSH1 0x4 MSTORE PUSH1 0x24 PUSH0 REVERT JUMPDEST PUSH32 0x4E487B7100000000000000000000000000000000000000000000000000000000 PUSH0 MSTORE PUSH1 0x22 PUSH1 0x4 MSTORE PUSH1 0x24 PUSH0 REVERT JUMPDEST PUSH0 PUSH1 0x2 DUP3 DIV SWAP1 POP PUSH1 0x1 DUP3 AND DUP1 PUSH2 0x249E JUMPI PUSH1 0x7F DUP3 AND SWAP2 POP JUMPDEST PUSH1 0x20 DUP3 LT DUP2 SUB PUSH2 0x24B1 JUMPI PUSH2 0x24B0 PUSH2 0x245A JUMP JUMPDEST JUMPDEST POP SWAP2 SWAP1 POP JUMP JUMPDEST PUSH0 DUP2 SWAP1 POP DUP2 PUSH0 MSTORE PUSH1 0x20 PUSH0 KECCAK256 SWAP1 POP SWAP2 SWAP1 POP JUMP JUMPDEST PUSH0 PUSH1 0x20 PUSH1 0x1F DUP4 ADD DIV SWAP1 POP SWAP2 SWAP1 POP JUMP JUMPDEST PUSH0 DUP3 DUP3 SHL SWAP1 POP SWAP3 SWAP2 POP POP JUMP JUMPDEST PUSH0 PUSH1 0x8 DUP4 MUL PUSH2 0x2513 PUSH32 0xFFFFFFFFFFFFFFFFFFFFFFFFFFFFFFFFFFFFFFFFFFFFFFFFFFFFFFFFFFFFFFFF DUP3 PUSH2 0x24D8 JUMP JUMPDEST PUSH2 0x251D DUP7 DUP4 PUSH2 0x24D8 JUMP JUMPDEST SWAP6 POP DUP1 NOT DUP5 AND SWAP4 POP DUP1 DUP7 AND DUP5 OR SWAP3 POP POP POP SWAP4 SWAP3 POP POP POP JUMP JUMPDEST PUSH0 PUSH2 0x254F PUSH2 0x254A PUSH2 0x2545 DUP5 PUSH2 0x17E5 JUMP JUMPDEST PUSH2 0x18EF JUMP JUMPDEST PUSH2 0x17E5 JUMP JUMPDEST SWAP1 POP SWAP2 SWAP1 POP JUMP JUMPDEST PUSH0 DUP2 SWAP1 POP SWAP2 SWAP1 POP JUMP JUMPDEST PUSH2 0x2568 DUP4 PUSH2 0x2535 JUMP JUMPDEST PUSH2 0x257C PUSH2 0x2574 DUP3 PUSH2 0x2556 JUMP JUMPDEST DUP5 DUP5 SLOAD PUSH2 0x24E4 JUMP JUMPDEST DUP3 SSTORE POP POP POP POP JUMP JUMPDEST PUSH0 SWAP1 JUMP JUMPDEST PUSH2 0x2590 PUSH2 0x2584 JUMP JUMPDEST PUSH2 0x259B DUP2 DUP5 DUP5 PUSH2 0x255F JUMP JUMPDEST POP POP POP JUMP JUMPDEST JUMPDEST DUP2 DUP2 LT ISZERO PUSH2 0x25BE JUMPI PUSH2 0x25B3 PUSH0 DUP3 PUSH2 0x2588 JUMP JUMPDEST PUSH1 0x1 DUP2 ADD SWAP1 POP PUSH2 0x25A1 JUMP JUMPDEST POP POP JUMP JUMPDEST PUSH1 0x1F DUP3 GT ISZERO PUSH2 0x2603 JUMPI PUSH2 0x25D4 DUP2 PUSH2 0x24B7 JUMP JUMPDEST PUSH2 0x25DD DUP5 PUSH2 0x24C9 JUMP JUMPDEST DUP2 ADD PUSH1 0x20 DUP6 LT ISZERO PUSH2 0x25EC JUMPI DUP2 SWAP1 POP JUMPDEST PUSH2 0x2600 PUSH2 0x25F8 DUP6 PUSH2 0x24C9 JUMP JUMPDEST DUP4 ADD DUP3 PUSH2 0x25A0 JUMP JUMPDEST POP POP JUMPDEST POP POP POP JUMP JUMPDEST PUSH0 DUP3 DUP3 SHR SWAP1 POP SWAP3 SWAP2 POP POP JUMP JUMPDEST PUSH0 PUSH2 0x2623 PUSH0 NOT DUP5 PUSH1 0x8 MUL PUSH2 0x2608 JUMP JUMPDEST NOT DUP1 DUP4 AND SWAP2 POP POP SWAP3 SWAP2 POP POP JUMP JUMPDEST PUSH0 PUSH2 0x263B DUP4 DUP4 PUSH2 0x2614 JUMP JUMPDEST SWAP2 POP DUP3 PUSH1 0x2 MUL DUP3 OR SWAP1 POP SWAP3 SWAP2 POP POP JUMP JUMPDEST PUSH2 0x2654 DUP3 PUSH2 0x1C99 JUMP JUMPDEST PUSH8 0xFFFFFFFFFFFFFFFF DUP2 GT ISZERO PUSH2 0x266D JUMPI PUSH2 0x266C PUSH2 0x1977 JUMP JUMPDEST JUMPDEST PUSH2 0x2677 DUP3 SLOAD PUSH2 0x2487 JUMP JUMPDEST PUSH2 0x2682 DUP3 DUP3 DUP6 PUSH2 0x25C2 JUMP JUMPDEST PUSH0 PUSH1 0x20 SWAP1 POP PUSH1 0x1F DUP4 GT PUSH1 0x1 DUP2 EQ PUSH2 0x26B3 JUMPI PUSH0 DUP5 ISZERO PUSH2 0x26A1 JUMPI DUP3 DUP8 ADD MLOAD SWAP1 POP JUMPDEST PUSH2 0x26AB DUP6 DUP3 PUSH2 0x2630 JUMP JUMPDEST DUP7 SSTORE POP PUSH2 0x2712 JUMP JUMPDEST PUSH1 0x1F NOT DUP5 AND PUSH2 0x26C1 DUP7 PUSH2 0x24B7 JUMP JUMPDEST PUSH0 JUMPDEST DUP3 DUP2 LT ISZERO PUSH2 0x26E8 JUMPI DUP5 DUP10 ADD MLOAD DUP3 SSTORE PUSH1 0x1 DUP3 ADD SWAP2 POP PUSH1 0x20 DUP6 ADD SWAP5 POP PUSH1 0x20 DUP2 ADD SWAP1 POP PUSH2 0x26C3 JUMP JUMPDEST DUP7 DUP4 LT ISZERO PUSH2 0x2705 JUMPI DUP5 DUP10 ADD MLOAD PUSH2 0x2701 PUSH1 0x1F DUP10 AND DUP3 PUSH2 0x2614 JUMP JUMPDEST DUP4 SSTORE POP JUMPDEST PUSH1 0x1 PUSH1 0x2 DUP9 MUL ADD DUP9 SSTORE POP POP POP JUMPDEST POP POP POP POP POP POP JUMP JUMPDEST PUSH0 PUSH1 0x60 DUP3 ADD SWAP1 POP PUSH2 0x272D PUSH0 DUP4 ADD DUP7 PUSH2 0x20A1 JUMP JUMPDEST PUSH2 0x273A PUSH1 0x20 DUP4 ADD DUP6 PUSH2 0x20A1 JUMP JUMPDEST PUSH2 0x2747 PUSH1 0x40 DUP4 ADD DUP5 PUSH2 0x18C7 JUMP JUMPDEST SWAP5 SWAP4 POP POP POP POP JUMP JUMPDEST PUSH0 PUSH2 0x2759 DUP3 PUSH2 0x17E5 JUMP JUMPDEST SWAP2 POP PUSH2 0x2764 DUP4 PUSH2 0x17E5 JUMP JUMPDEST SWAP3 POP DUP3 DUP3 SUB SWAP1 POP DUP2 DUP2 GT ISZERO PUSH2 0x277C JUMPI PUSH2 0x277B PUSH2 0x224E JUMP JUMPDEST JUMPDEST SWAP3 SWAP2 POP POP JUMP JUMPDEST PUSH32 0x4964E4B88DE5AD98E59CA8000000000000000000000000000000000000000000 PUSH0 DUP3 ADD MSTORE POP JUMP JUMPDEST PUSH0 PUSH2 0x27B6 PUSH1 0xB DUP4 PUSH2 0x21D6 JUMP JUMPDEST SWAP2 POP PUSH2 0x27C1 DUP3 PUSH2 0x2782 JUMP JUMPDEST PUSH1 0x20 DUP3 ADD SWAP1 POP SWAP2 SWAP1 POP JUMP JUMPDEST PUSH0 PUSH1 0x20 DUP3 ADD SWAP1 POP DUP2 DUP2 SUB PUSH0 DUP4 ADD MSTORE PUSH2 0x27E3 DUP2 PUSH2 0x27AA JUMP JUMPDEST SWAP1 POP SWAP2 SWAP1 POP JUMP JUMPDEST PUSH32 0xE6B4BBE58AA8E5B7B2E7BB8FE7BB93E69D9F0000000000000000000000000000 PUSH0 DUP3 ADD MSTORE POP JUMP JUMPDEST PUSH0 PUSH2 0x281E PUSH1 0x12 DUP4 PUSH2 0x21D6 JUMP JUMPDEST SWAP2 POP PUSH2 0x2829 DUP3 PUSH2 0x27EA JUMP JUMPDEST PUSH1 0x20 DUP3 ADD SWAP1 POP SWAP2 SWAP1 POP JUMP JUMPDEST PUSH0 PUSH1 0x20 DUP3 ADD SWAP1 POP DUP2 DUP2 SUB PUSH0 DUP4 ADD MSTORE PUSH2 0x284B DUP2 PUSH2 0x2812 JUMP JUMPDEST SWAP1 POP SWAP2 SWAP1 POP JUMP JUMPDEST PUSH32 0xE69C80E5B08FE98791E9A29DE4B88DE4B88DE6ADA3E7A1AE0000000000000000 PUSH0 DUP3 ADD MSTORE POP JUMP JUMPDEST PUSH0 PUSH2 0x2886 PUSH1 0x18 DUP4 PUSH2 0x21D6 JUMP JUMPDEST SWAP2 POP PUSH2 0x2891 DUP3 PUSH2 0x2852 JUMP JUMPDEST PUSH1 0x20 DUP3 ADD SWAP1 POP SWAP2 SWAP1 POP JUMP JUMPDEST PUSH0 PUSH1 0x20 DUP3 ADD SWAP1 POP DUP2 DUP2 SUB PUSH0 DUP4 ADD MSTORE PUSH2 0x28B3 DUP2 PUSH2 0x287A JUMP JUMPDEST SWAP1 POP SWAP2 SWAP1 POP JUMP JUMPDEST PUSH32 0xE58CBAE59D97E697B6E997B4E99499E8AFAFEFBC8CE5B7B2E8B685E697B60000 PUSH0 DUP3 ADD MSTORE POP JUMP JUMPDEST PUSH0 PUSH2 0x28EE PUSH1 0x1E DUP4 PUSH2 0x21D6 JUMP JUMPDEST SWAP2 POP PUSH2 0x28F9 DUP3 PUSH2 0x28BA JUMP JUMPDEST PUSH1 0x20 DUP3 ADD SWAP1 POP SWAP2 SWAP1 POP JUMP JUMPDEST PUSH0 PUSH1 0x20 DUP3 ADD SWAP1 POP DUP2 DUP2 SUB PUSH0 DUP4 ADD MSTORE PUSH2 0x291B DUP2 PUSH2 0x28E2 JUMP JUMPDEST SWAP1 POP SWAP2 SWAP1 POP JUMP JUMPDEST PUSH0 PUSH1 0x80 DUP3 ADD SWAP1 POP PUSH2 0x2935 PUSH0 DUP4 ADD DUP8 PUSH2 0x18C7 JUMP JUMPDEST PUSH2 0x2942 PUSH1 0x20 DUP4 ADD DUP7 PUSH2 0x20A1 JUMP JUMPDEST PUSH2 0x294F PUSH1 0x40 DUP4 ADD DUP6 PUSH2 0x18C7 JUMP JUMPDEST PUSH2 0x295C PUSH1 0x60 DUP4 ADD DUP5 PUSH2 0x18C7 JUMP JUMPDEST SWAP6 SWAP5 POP POP POP POP POP JUMP JUMPDEST PUSH32 0xE6B2A1E69C89E69D83E999900000000000000000000000000000000000000000 PUSH0 DUP3 ADD MSTORE POP JUMP JUMPDEST PUSH0 PUSH2 0x2999 PUSH1 0xC DUP4 PUSH2 0x21D6 JUMP JUMPDEST SWAP2 POP PUSH2 0x29A4 DUP3 PUSH2 0x2965 JUMP JUMPDEST PUSH1 0x20 DUP3 ADD SWAP1 POP SWAP2 SWAP1 POP JUMP JUMPDEST PUSH0 PUSH1 0x20 DUP3 ADD SWAP1 POP DUP2 DUP2 SUB PUSH0 DUP4 ADD MSTORE PUSH2 0x29C6 DUP2 PUSH2 0x298D JUMP JUMPDEST SWAP1 POP SWAP2 SWAP1 POP JUMP INVALID LOG2 PUSH5 0x6970667358 0x22 SLT KECCAK256 PUSH14 0x77579A86A3AEDFC63F975645C2D0 GT MSIZE 0xE0 PUSH31 0xB2E118E370C9B0B0884459F16364736F6C6343000816003300000000000000 "
		},
		"gasEstimates": {
			"creation": {
				"codeDepositCost": "2151000",
				"executionCost": "52956",
				"totalCost": "2203956"
			},
			"external": {
				"": "174",
				"activityId()": "2470",
				"allowancesOfWBC(address,address)": "infinite",
				"approveWBC(address,uint256)": "infinite",
				"createActivity(string[2],uint256,uint256,uint256,uint256)": "infinite",
				"finish(uint256)": "infinite",
				"getAccount()": "467",
				"getActivity(uint256)": "infinite",
				"getActivityList()": "infinite",
				"getWBCBalance(address)": "infinite",
				"pay(uint256)": "infinite",
				"transferFromWBC(address,address,uint256)": "infinite",
				"transferWBC(address,uint256)": "infinite",
				"wbcContract()": "infinite",
				"wbcContractAddress()": "2572"
			}
		},
		"methodIdentifiers": {
			"activityId()": "56998531",
			"allowancesOfWBC(address,address)": "205abd25",
			"approveWBC(address,uint256)": "00fe6a77",
			"createActivity(string[2],uint256,uint256,uint256,uint256)": "5cff09f5",
			"finish(uint256)": "d353a1cb",
			"getAccount()": "db613e81",
			"getActivity(uint256)": "922635d8",
			"getActivityList()": "823cf33a",
			"getWBCBalance(address)": "d92c183a",
			"pay(uint256)": "c290d691",
			"transferFromWBC(address,address,uint256)": "64f3ad52",
			"transferWBC(address,uint256)": "4515f7ad",
			"wbcContract()": "2da5e572",
			"wbcContractAddress()": "96493566"
		}
	},
	"abi": [
		{
			"inputs": [],
			"stateMutability": "nonpayable",
			"type": "constructor"
		},
		{
			"anonymous": false,
			"inputs": [
				{
					"indexed": false,
					"internalType": "uint256",
					"name": "_activityId",
					"type": "uint256"
				},
				{
					"indexed": false,
					"internalType": "address",
					"name": "sender",
					"type": "address"
				},
				{
					"indexed": false,
					"internalType": "uint256",
					"name": "value",
					"type": "uint256"
				},
				{
					"indexed": false,
					"internalType": "uint256",
					"name": "timeAt",
					"type": "uint256"
				}
			],
			"name": "Pay",
			"type": "event"
		},
		{
			"stateMutability": "payable",
			"type": "fallback"
		},
		{
			"inputs": [],
			"name": "activityId",
			"outputs": [
				{
					"internalType": "uint256",
					"name": "",
					"type": "uint256"
				}
			],
			"stateMutability": "view",
			"type": "function"
		},
		{
			"inputs": [
				{
					"internalType": "address",
					"name": "owner",
					"type": "address"
				},
				{
					"internalType": "address",
					"name": "spender",
					"type": "address"
				}
			],
			"name": "allowancesOfWBC",
			"outputs": [
				{
					"internalType": "uint256",
					"name": "",
					"type": "uint256"
				}
			],
			"stateMutability": "view",
			"type": "function"
		},
		{
			"inputs": [
				{
					"internalType": "address",
					"name": "spender",
					"type": "address"
				},
				{
					"internalType": "uint256",
					"name": "value",
					"type": "uint256"
				}
			],
			"name": "approveWBC",
			"outputs": [
				{
					"internalType": "bool",
					"name": "",
					"type": "bool"
				}
			],
			"stateMutability": "nonpayable",
			"type": "function"
		},
		{
			"inputs": [
				{
					"internalType": "string[2]",
					"name": "attr",
					"type": "string[2]"
				},
				{
					"internalType": "uint256",
					"name": "value",
					"type": "uint256"
				},
				{
					"internalType": "uint256",
					"name": "deadline",
					"type": "uint256"
				},
				{
					"internalType": "uint256",
					"name": "minValue",
					"type": "uint256"
				},
				{
					"internalType": "uint256",
					"name": "minValuePercent",
					"type": "uint256"
				}
			],
			"name": "createActivity",
			"outputs": [],
			"stateMutability": "nonpayable",
			"type": "function"
		},
		{
			"inputs": [
				{
					"internalType": "uint256",
					"name": "_activityId",
					"type": "uint256"
				}
			],
			"name": "finish",
			"outputs": [],
			"stateMutability": "nonpayable",
			"type": "function"
		},
		{
			"inputs": [],
			"name": "getAccount",
			"outputs": [
				{
					"internalType": "address",
					"name": "",
					"type": "address"
				}
			],
			"stateMutability": "view",
			"type": "function"
		},
		{
			"inputs": [
				{
					"internalType": "uint256",
					"name": "_activityId",
					"type": "uint256"
				}
			],
			"name": "getActivity",
			"outputs": [
				{
					"internalType": "bool",
					"name": "",
					"type": "bool"
				},
				{
					"components": [
						{
							"internalType": "uint256",
							"name": "id",
							"type": "uint256"
						},
						{
							"internalType": "address",
							"name": "creator",
							"type": "address"
						},
						{
							"internalType": "string",
							"name": "title",
							"type": "string"
						},
						{
							"internalType": "string",
							"name": "description",
							"type": "string"
						},
						{
							"internalType": "uint256",
							"name": "value",
							"type": "uint256"
						},
						{
							"internalType": "uint256",
							"name": "amount",
							"type": "uint256"
						},
						{
							"internalType": "uint256",
							"name": "deadline",
							"type": "uint256"
						},
						{
							"internalType": "uint256",
							"name": "minValue",
							"type": "uint256"
						},
						{
							"internalType": "uint256",
							"name": "minValuePercent",
							"type": "uint256"
						},
						{
							"internalType": "enum Echo.State",
							"name": "state",
							"type": "uint8"
						},
						{
							"internalType": "uint256",
							"name": "finishedTime",
							"type": "uint256"
						},
						{
							"internalType": "uint256",
							"name": "createAt",
							"type": "uint256"
						}
					],
					"internalType": "struct Echo.Activity",
					"name": "",
					"type": "tuple"
				}
			],
			"stateMutability": "view",
			"type": "function"
		},
		{
			"inputs": [],
			"name": "getActivityList",
			"outputs": [
				{
					"components": [
						{
							"internalType": "uint256",
							"name": "id",
							"type": "uint256"
						},
						{
							"internalType": "address",
							"name": "creator",
							"type": "address"
						},
						{
							"internalType": "string",
							"name": "title",
							"type": "string"
						},
						{
							"internalType": "string",
							"name": "description",
							"type": "string"
						},
						{
							"internalType": "uint256",
							"name": "value",
							"type": "uint256"
						},
						{
							"internalType": "uint256",
							"name": "amount",
							"type": "uint256"
						},
						{
							"internalType": "uint256",
							"name": "deadline",
							"type": "uint256"
						},
						{
							"internalType": "uint256",
							"name": "minValue",
							"type": "uint256"
						},
						{
							"internalType": "uint256",
							"name": "minValuePercent",
							"type": "uint256"
						},
						{
							"internalType": "enum Echo.State",
							"name": "state",
							"type": "uint8"
						},
						{
							"internalType": "uint256",
							"name": "finishedTime",
							"type": "uint256"
						},
						{
							"internalType": "uint256",
							"name": "createAt",
							"type": "uint256"
						}
					],
					"internalType": "struct Echo.Activity[]",
					"name": "",
					"type": "tuple[]"
				}
			],
			"stateMutability": "view",
			"type": "function"
		},
		{
			"inputs": [
				{
					"internalType": "address",
					"name": "account",
					"type": "address"
				}
			],
			"name": "getWBCBalance",
			"outputs": [
				{
					"internalType": "uint256",
					"name": "",
					"type": "uint256"
				}
			],
			"stateMutability": "view",
			"type": "function"
		},
		{
			"inputs": [
				{
					"internalType": "uint256",
					"name": "_activityId",
					"type": "uint256"
				}
			],
			"name": "pay",
			"outputs": [],
			"stateMutability": "payable",
			"type": "function"
		},
		{
			"inputs": [
				{
					"internalType": "address",
					"name": "from",
					"type": "address"
				},
				{
					"internalType": "address",
					"name": "to",
					"type": "address"
				},
				{
					"internalType": "uint256",
					"name": "amount",
					"type": "uint256"
				}
			],
			"name": "transferFromWBC",
			"outputs": [
				{
					"internalType": "bool",
					"name": "",
					"type": "bool"
				}
			],
			"stateMutability": "nonpayable",
			"type": "function"
		},
		{
			"inputs": [
				{
					"internalType": "address",
					"name": "to",
					"type": "address"
				},
				{
					"internalType": "uint256",
					"name": "amount",
					"type": "uint256"
				}
			],
			"name": "transferWBC",
			"outputs": [
				{
					"internalType": "bool",
					"name": "",
					"type": "bool"
				}
			],
			"stateMutability": "nonpayable",
			"type": "function"
		},
		{
			"inputs": [],
			"name": "wbcContract",
			"outputs": [
				{
					"internalType": "contract ITRC20",
					"name": "",
					"type": "address"
				}
			],
			"stateMutability": "view",
			"type": "function"
		},
		{
			"inputs": [],
			"name": "wbcContractAddress",
			"outputs": [
				{
					"internalType": "address",
					"name": "",
					"type": "address"
				}
			],
			"stateMutability": "view",
			"type": "function"
		},
		{
			"stateMutability": "payable",
			"type": "receive"
		}
	]
}